:020000040800F2
:10000000005000205D190008C5170008D11700082E
:10001000D7170008DD170008E317000800000000EC
:10002000000000000000000000000000E9170008C8
:10003000F517000800000000011800080D1800085E
:10004000A5190008A5190008A5190008A519000898
:10005000A5190008A5190008A5190008A519000888
:10006000A5190008A5190008A5190008A519000878
:10007000A5190008A5190008A5190008A519000868
:10008000A5190008A5190008A5190008A519000858
:100090004118000855180008A5190008A5190008FE
:1000A000A5190008A5190008A5190008A519000838
:1000B000A5190008A5190008A5190008A519000828
:1000C000A5190008A5190008A5190008A519000818
:1000D000A5190008A5190008A5190008A519000808
:1000E00069180008A5190008A519000800000000FB
:1000F0000000000000000000000000000000000000
:0C01000000000000000000005FF808F1A3
:10010C0010B5054C237833B9044B13B10448AFF345
:10011C0000800123237010BD0C00002000000000A3
:10012C00402C000808B5034B1BB103490348AFF33F
:10013C00008008BD0000000010000020402C0008CA
:10014C0080B483B000AF03463960FB7197F9073078
:10015C00002B0ADB3B68DAB20C4997F90730120125
:10016C00D2B20B4483F800230AE03B68DAB20849A8
:10017C00FB7903F00F03043B1201D2B20B441A7645
:10018C0000BF0C37BD4680BC704700BF00E100E0EB
:10019C0000ED00E080B582B000AF78607B68013B79
:1001AC00B3F1807F01D301230FE00A4A7B68013B46
:1001BC0053600F214FF0FF30FFF7C2FF054B0022B9
:1001CC009A60044B07221A60002318460837BD4674
:1001DC0080BD00BF10E000E080B586B000AF012309
:1001EC00FB75814B3B610323BB73804B01221A616E
:1001FC007E4B00229A607D4B0022DA607B4B40F2F2
:10020C0003121A607A4B01221A61794B00229A6010
:10021C00774B0022DA60764B30221A6001F0BEFB7D
:10022C0000F056F900F002F9724801F0E9FD0221E4
:10023C00704802F014F8FB1D6C4A00216D4801F067
:10024C00FDFE07F1080307F10E026949694801F048
:10025C001BFE01F011FB684B1B681846FFF79AFF59
:10026C0000F056FA00F00DFC386900F018FC634BF6
:10027C0000221A7000F0C6F92DE0614B1B78002BA0
:10028C0029D0FB7D002B08D00023FB750021012019
:10029C0000F02EFC5B4800F002FC594B00221A7057
:1002AC0000F0C2F9584B1B78013B584AD35C0A2B1F
:1002BC0007D1554B00221A70544801F0E1F800F0B8
:1002CC00D1F907F1080307F10E024949494801F039
:1002DC00DBFD00F097F9494B1B78002BCDD007F1D3
:1002EC000F03184601F050F9494B1B78002B5ED0D8
:1002FC00FB7B012B12D1022001F088F90346002B65
:10030C000CD000F0BEFB434800F0C9FB022001F00A
:10031C0091FB01F09CF900F05FF964E0FB7B012B91
:10032C0015D100F0AEFB0321002000F0E1FB3A48B0
:10033C0000F0B5FB0121012000F0DAFB374800F09A
:10034C00AEFB022001F076FB00F030F988E7FB7B76
:10035C00022B12D1012001F059F90346002B0CD0CD
:10036C0000F08FFB2E4800F09AFB022001F062FB9C
:10037C0001F06DF900F01AF935E0FB7B022B7FF4EC
:10038C006FAF00F07EFB0321002000F0B1FB224890
:10039C0000F085FB0121012000F0AAFB1F4800F0B2
:1003AC007EFB022001F046FB00F016F958E7FB7BC0
:1003BC00012B0AD100F065FB1A4800F070FB0220FB
:1003CC0001F038FB00F0F2F84AE7FB7B022B7FF4DC
:1003DC0047AF00F056FB144800F061FB022001F01F
:1003EC0029FB00F0F9F83BE7582C0008DC00002052
:1003FC00C40000209C000020040000208D00002080
:10040C008E000020642C00088C00002028000020A6
:10041C008F000020702C0008802C0008882C00080D
:10042C00982C0008A82C0008B82C000880B58AB0BD
:10043C0000AF254B254A1A60234B10225A60224BE1
:10044C0000229A60204B0022DA601F4B4FF480325E
:10045C001A611D4B00225A611B4B00221A761A4B53
:10046C0000225A76184B00229A76174B0022DA7625
:10047C00154B00221A77144B00225A77124801F0C0
:10048C00FBFA0346002B01D000F03EF901233B623E
:10049C000A237B6100233B6100233B6000237B60CC
:1004AC000023BB600023FB600023BB610123FB61C5
:1004BC0000237B623B461946034801F0D8FB00BF82
:1004CC002837BD4680BD00BF9C0000200064004062
:1004DC0080B586B000AF07F1080300221A605A609D
:1004EC009A60DA602D4B9B692C4A43F004039361AC
:1004FC002A4B9B6903F004037B607B68274B9B6949
:10050C00264A43F008039361244B9B6903F00803CC
:10051C003B603B68002240F20631214802F01CFB94
:10052C0000224FF470411F4802F016FB40F20633D4
:10053C00BB600123FB6000233B6102237B6107F15D
:10054C0008031946164802F0ADF94FF40063BB607E
:10055C00154BFB6000233B6107F10803194611485A
:10056C0002F0A0F94FF47043BB600123FB60002341
:10057C003B6102237B6107F108031946094802F02D
:10058C0091F900220021282002F061F9282002F0C4
:10059C007AF900BF1837BD4680BD00BF001002407D
:1005AC0000080140000C01400000211080B500AF94
:1005BC00064800F001FE064B1B68064A136001F06A
:1005CC00FFF9044B1B68984700BF80BD00800008F2
:1005DC00048000089000002080B500AF064800F0B1
:1005EC00EBFD064B1B68064A136001F0E9F9044B5E
:1005FC001B68984700BF80BD00000108040001087B
:10060C009000002080B400AF064B00221A60054B0E
:10061C0000229A60034B07221A6000BFBD4680BCC3
:10062C00704700BF10E000E080B400AF044B002224
:10063C001A60034B00229A6000BFBD4680BC704715
:10064C0010E000E080B500AF0421044802F09CFAF1
:10065C00034B01221A7000BF80BD00BF000801408F
:10066C008D00002080B483B000AF0023FB7106E046
:10067C00FB79074A0021D154FB790133FB71FB79DB
:10068C00632BF5D900BF0C37BD4680BC704700BF4B
:10069C002800002080B582B000AF78600D4B01229D
:1006AC001A7002210C4802F06FFA0C4B1B781A4698
:1006BC000B4B13440B4A0021786801F0BFFC074B2D
:1006CC001B780133DAB2054B1A7000BF0837BD46F0
:1006DC0080BD00BF8E000020000801408C0000206F
:1006EC0028000020DC00002080B483B000AF03465B
:1006FC00FB80044B01221A7000BF0C37BD4680BC36
:10070C00704700BF8F00002080B400AF72B6FEE7C8
:10071C0080B500AF02220821002000F0C5FB0222A8
:10072C000921002000F0C0FB02220F21012000F063
:10073C00BBFB02220E21012000F0B6FB02220D2190
:10074C00012000F0B1FB02220C21012000F0ACFBD7
:10075C00282000F04FFD00F07FF9012000F04AFD49
:10076C0000F081F9012000F045FD00F08AF903202A
:10077C0000F040FD00F08CF9012000F03BFD00BFC3
:10078C0080BD80B586B000AF0346FB710023FB75BE
:10079C00FB79382B2AD0FB79282B27D0FB790C2B13
:1007AC0024D0FB79082B21D0FB790E2B1ED0FB79A2
:1007BC000A2B1BD0FB790F2B18D0FB79102B15D0E3
:1007CC00FB79142B12D0FB79182B0FD0FB791C2B37
:1007DC000CD0FB79802B09D0FB79C02B06D0FB7990
:1007EC00012B03D0FB79062B40F0928000220921CB
:1007FC00002000F047FC012000F0FCFC0022082146
:10080C00002000F03FFC012000F0F4FCFB79DB0938
:10081C00BB75FB799B09DBB203F001037B75FB799C
:10082C005B09DBB203F001033B75FB791B09DBB2FF
:10083C0003F00103FB7401220821002000F022FCCC
:10084C00012000F0D7FCBB7D1A460C21012000F0E2
:10085C0019FC7B7D1A460D21012000F013FC3B7D19
:10086C001A460E21012000F00DFCFB7C1A460F21CC
:10087C00012000F007FC012000F0BCFC0022082144
:10088C00002000F0FFFB012000F0B4FCFB79DB083A
:10089C00DBB203F00103BB74FB799B08DBB203F002
:1008AC0001037B74FB795B08DBB203F001033B743F
:1008BC00FB7903F00103FB7301220821002000F0F7
:1008CC00E1FB012000F096FCBB7C1A460C210120B8
:1008DC0000F0D8FB7B7C1A460D21012000F0D2FBE6
:1008EC003B7C1A460E21012000F0CCFBFB7B1A4608
:1008FC000F21012000F0C6FB012000F07BFC002240
:10090C000821002000F0BEFB022000F073FC01E087
:10091C000123FB75FB7D18461837BD4680BD80B59D
:10092C0084B000AF0346FB710023FB730122092145
:10093C00002000F0A7FB012000F05CFC0022082145
:10094C00002000F09FFB012000F054FCFB79DB0938
:10095C00BB73FB799B09DBB203F001037B73FB795F
:10096C005B09DBB203F001033B73FB791B09DBB2C0
:10097C0003F00103FB7201220821002000F082FB2E
:10098C00012000F037FCBB7B1A460C21012000F043
:10099C0079FB7B7B1A460D21012000F073FB3B7B1E
:1009AC001A460E21012000F06DFBFB7A1A460F212E
:1009BC00012000F067FB012000F01CFC0022082144
:1009CC00002000F05FFB012000F014FCFB79DB0839
:1009DC00DBB203F00103BB73FB799B08DBB203F0C2
:1009EC0001037B73FB795B08DBB203F001033B7300
:1009FC00FB7903F00103FB7201220821002000F0B7
:100A0C0041FB012000F0F6FBBB7B1A460C210120B8
:100A1C0000F038FB7B7B1A460D21012000F032FBE5
:100A2C003B7B1A460E21012000F02CFBFB7A1A4668
:100A3C000F21012000F026FB012000F0DBFB00223F
:100A4C000821002000F01EFB022000F0D3FBFB7BF2
:100A5C0018461037BD4680BD80B500AF2820FFF783
:100A6C0090FE00BF80BD80B500AF0C20FFF789FE63
:100A7C0000BF80BD80B500AFC020FFF782FE00BF75
:100A8C0080BD80B500AF0120FFF77BFE00BF80BDAD
:100A9C0080B500AF0620FFF774FE00BF80BD80B5A7
:100AAC0084B000AF78600023FB730023BB607B68CD
:100ABC00002B16D00EE07A68BB6813441B781846DE
:100ACC00FFF72DFFBB680133BB60BB68142B01D152
:100ADC00FFF7D0FF7A68BB6813441B78002BEAD170
:100AEC0001E00223FB73FB7B18461037BD4680BD2B
:100AFC0080B584B000AF03460A46FB711346BB7148
:100B0C000023FB73BB79132B16D8FB79002B02D077
:100B1C00012B07D00DE0BB79803BDBB21846FFF709
:100B2C0030FE0BE0BB79403BDBB21846FFF729FEE9
:100B3C0004E00123FB7301E00123FB73FB7B1846EC
:100B4C001037BD4680BD000080B485B000AF0346B1
:100B5C00FB710023FB7397F90730002B39DB00BFC7
:100B6C00204BDB6803F00103012BF9D01D4B1B69F3
:100B7C00DB0903F00103012B05D11A4B1A4A5A6009
:100B8C00184B1A4A5A60174B1B69164A43F002035A
:100B9C001361FB799B02134A03F100635361114B00
:100BAC001B69104A43F04003136100BF0D4BDB6817
:100BBC0003F00103012BF9D00A4BDB68094A43F01F
:100BCC002003D360074B1B69064A23F00203136111
:100BDC0001E00123FB73FB7B18461437BD4680BC38
:100BEC00704700BF0020024023016745AB89EFCD61
:100BFC0080B584B000AF03463960FB710023FB73F2
:100C0C0097F90730002B11DB0023BB7309E0BA7B8B
:100C1C00FB791344DBB21846FFF796FFBB7B01331D
:100C2C00BB73BB7B3A689A42F1D801E00123FB739A
:100C3C00FB7B18461037BD4680BD000080B487B0E2
:100C4C0000AFF860B9601346FB710023FB75BB68FD
:100C5C00002B4CD0FB68B3F1006F45D3FB68284ADE
:100C6C00934241D800BF274BDB6803F00103012BF3
:100C7C00F9D0244B1B69DB0903F00103012B05D1CF
:100C8C00204B214A5A601F4B204A5A600023BB75E7
:100C9C0025E01C4B1B691B4A43F001031361BB7D10
:100CAC005B00BA681A44FB6812881A80FB6802332E
:100CBC00FB6000BF134BDB6803F00103012BF9D081
:100CCC00104BDB680F4A43F02003D3600D4B1B69BC
:100CDC000C4A23F001031361BB7D0133BB75BA7D54
:100CEC00FB799A42D5D304E00123FB7501E0022382
:100CFC00FB75FB7D18461C37BD4680BC704700BF9A
:100D0C00FFFF01080020024023016745AB89EFCDAE
:100D1C0080B485B000AF03460A46FB711346BB7125
:100D2C000023FB73FB79002B02D0FB79012B6ED1D6
:100D3C0000BF3B4BDB6803F00103012BF9D0384BB0
:100D4C001B69DB0903F00103012B05D1344B354A38
:100D5C005A60334B344A5A60314B324A9A60304BAA
:100D6C00314A9A602E4B1B692D4A43F40073136170
:100D7C002B4B1B692A4A43F020031361284B1B6938
:100D8C00274A43F04003136100BF254BDB6803F097
:100D9C000103012BF9D0224BDB68214A43F02003DD
:100DAC00D3601F4B1B691E4A23F0200313611C4B9D
:100DBC001B691B4A43F0100313611C4BA5221A80BC
:100DCC0000BF174BDB6803F00103012BF9D0FB7953
:100DDC00002B04D1164BBA7992B21A8003E0154B52
:100DEC00BA7992B21A8000BF0D4BDB6803F0010395
:100DFC00012BF9D00A4BDB68094A43F02003D3607E
:100E0C00074B1B69064A23F01003136101E0012311
:100E1C00FB73FB7B18461437BD4680BC704700BF84
:100E2C000020024023016745AB89EFCD00F8FF1F7E
:100E3C0004F8FF1F06F8FF1F80B485B000AF03460F
:100E4C003960FB710023FB73154BA5221A8000BF80
:100E5C00144BDB6803F00103012BF9D03B68002B2A
:100E6C0016D0FB79002B02D0012B07D00DE00D4BD7
:100E7C00DB699B0ADAB23B681A700BE0094BDB6941
:100E8C009B0CDAB23B681A7004E00123FB7301E09F
:100E9C000223FB73FB7B18461437BD4680BC70479E
:100EAC0000F8FF1F0020024080B485B000AF03465D
:100EBC00FB710B46BB7113467B710023FB73FB79F3
:100ECC00022B00F2D080BB790F2B00F2CC807B7907
:100EDC00002B2AD07B79042B27D07B79082B24D0AC
:100EEC007B79012B21D07B79052B1ED07B79092BAB
:100EFC001BD07B790D2B18D07B79022B15D07B79ED
:100F0C00062B12D07B790A2B0FD07B790E2B0CD0B1
:100F1C007B79032B09D07B79072B06D07B790B2BA4
:100F2C0003D07B790F2B40F09E80FB79012B3CD0BA
:100F3C00022B72D0002B00D097E0BB79072B17D86F
:100F4C004D4B1B68BA7992000F2101FA02F2D24381
:100F5C001146494A0B401360474B1B687979BA79A3
:100F6C00920001FA02F21146434A0B43136074E0FB
:100F7C00BB790F2B71D8404B5B68BA79083A920059
:100F8C000F2101FA02F2D24311463B4A0B40536047
:100F9C00394B5B687979BA79083A920001FA02F216
:100FAC001146354A0B43536057E0BB79072B17D8D2
:100FBC00324B1B68BA7992000F2101FA02F2D2432C
:100FCC0011462E4A0B4013602C4B1B687979BA7969
:100FDC00920001FA02F21146284A0B4313603EE0DC
:100FEC00BB790F2B3BD8254B5B68BA79083A92003A
:100FFC000F2101FA02F2D2431146204A0B405360F2
:10100C001E4B5B687979BA79083A920001FA02F2C0
:10101C0011461A4A0B43536021E0BB790C2B20D9A3
:10102C00BB790F2B1DD8164B5B68BA79083A920026
:10103C000F2101FA02F2D2431146114A0B405360C0
:10104C000F4B5B687979BA79083A920001FA02F28F
:10105C0011460B4A0B43536003E000BF05E000BF91
:10106C0003E000BF01E00123FB73FB7B1846143740
:10107C00BD4680BC704700BF00080140000C014019
:10108C000010014080B485B000AF0346FB710B46E5
:10109C00BB7113467B710023FB73FB79022B7CD84D
:1010AC00BB790F2B79D87B79012B0ED07B79002B58
:1010BC000BD07B79012B08D07B79002B05D07B7969
:1010CC00012B02D07B79002B67D1FB79012B22D02D
:1010DC00022B3ED0002B00D061E07B79012B05D098
:1010EC007B79012B02D07B79012B05D1BB790122B5
:1010FC009A402E4B1A614AE07B79002B05D07B7904
:10110C00002B02D07B79002B41D1BB7901229A4074
:10111C00264B5A613BE07B79012B05D07B79012B67
:10112C0002D07B79012B05D1BB7901229A40204B4F
:10113C001A612EE07B79002B05D07B79002B02D035
:10114C007B79002B25D1BB7901229A40184B5A612F
:10115C001FE07B79012B05D07B79012B02D07B79A9
:10116C00012B05D1BB7901229A40124B1A6112E076
:10117C007B79002B05D07B79002B02D07B79002B5F
:10118C0009D1BB7901229A400A4B5A6103E000BF96
:10119C0005E000BF03E000BF01E00123FB73FB7B14
:1011AC0018461437BD4680BC704700BF000801408C
:1011BC00000C01400010014080B485B000AF786095
:1011CC000023FB737B68094A934207D87B68DBB228
:1011DC00002B03D1064A7B68936001E00123FB736B
:1011EC00FB7B18461437BD4680BC704700FEFF3FA2
:1011FC0000ED00E080B485B000AF78607B684FF400
:10120C00FA7202FB03F3BB600023FB6003E000BF38
:10121C00FB680133FB60FA68BB689A42F7D3FB6842
:10122C0018461437BD4680BC704780B485B000AFFB
:10123C000346FB71FB79402B06D9FB79462B03D86F
:10124C00FB79373BFB7308E0FB792F2B05D9FB7936
:10125C00392B02D8FB79303BFB73FB7B18461437D8
:10126C00BD4680BC7047000080B584B000AF78608C
:10127C000023FB810023BB607B6809331B78184675
:10128C00FFF7D3FF03463B727B680A331B78184683
:10129C00FFF7CBFF03467B727B680B331B7818463A
:1012AC00FFF7C3FF0346BB727B680C331B781846F1
:1012BC00FFF7BBFF0346FB723B7A1B031AB27B7A28
:1012CC001B021BB213431AB2BB7A1B011BB2134392
:1012DC001AB2FB7A1BB213431BB2FB81FB891B04B2
:1012EC001A46034B1A6000BF1037BD4680BD00BFC5
:1012FC00F800002080B5B6B000AF78607B68013391
:10130C001B781846FFF791FF034687F8D6307B68A9
:10131C0002331B781846FFF788FF034687F8D53051
:10132C0097F8D6301B015AB297F9D53013435BB2FC
:10133C0087F8D4307B6803331B781846FFF775FFAA
:10134C0003463B727B6804331B781846FFF76DFF2E
:10135C0003467B727B6805331B781846FFF765FFE5
:10136C000346BB727B6806331B781846FFF75DFF9C
:10137C000346FB72414B1B681B0C1B043F4A13605A
:10138C003B7A1A037B7A1B021A43BB7A1B01134369
:10139C00FA7A13431A46394B1B681343374A1360C6
:1013AC00002387F8D73052E097F8D7309B000933E9
:1013BC001A467B6813441B781846FFF736FF034622
:1013CC003B7297F8D7309B000A331A467B6813445C
:1013DC001B781846FFF729FF03467B7297F8D73026
:1013EC009B000B331A467B6813441B781846FFF797
:1013FC001CFF0346BB7297F8D73003339B001A4689
:10140C007B6813441B781846FFF70FFF0346FB72EB
:10141C00BB7A1B031AB2FB7A1B021BB213431AB220
:10142C003B7A1B011BB213431AB27B7A1BB21343D8
:10143C001AB297F8D73092B25B0007F1D8010B447F
:10144C0023F8CC2C97F8D730013387F8D73097F89E
:10145C00D4305B08DBB297F8D7209A42A4D3074B61
:10146C00186897F8D4305B08DAB207F10C03194608
:10147C00FFF7E4FB00BFD837BD4680BDF800002065
:10148C0080B584B000AF78600023FB7307F10F03C5
:10149C0019460020FFF7D0FC7B6808331B78312BF2
:1014AC002ED0342B06D0302B00D061E07868FFF7BB
:1014BC0021FF5EE07868FFF7D7FE304B1B68B3F175
:1014CC00006F09D120212020FFF792FBFB7B23F03A
:1014DC000403DBB2FB730DE0284B1B68284A9342D4
:1014EC0008D120214020FFF783FBFB7B23F008036E
:1014FC00DBB2FB73FB7B19460020FFF709FC38E0DD
:10150C00FB7B23F00103DBB2FB73FB7B23F00203B9
:10151C00DBB2FB73194B1B681B0C1B04B3F1006F84
:10152C000DD1FB7B43F00103DBB2FB73154B0122A6
:10153C001A70FB7B43F00403DBB2FB7313E00F4B1D
:10154C001B681B0C1B040E4A93420CD1FB7B43F013
:10155C000203DBB2FB730B4B02221A70FB7B43F0D2
:10156C000803DBB2FB73FB7B19460020FFF7D0FBB3
:10157C0000BF00BF1037BD4680BD00BFF800002083
:10158C00000001089400002080B584B000AF7860A2
:10159C000023FB730C4B1B78002B0CD107F10F03B2
:1015AC0019460020FFF748FCFB7B03F00303DAB27B
:1015BC007B681A7003E0044B1A787B681A7000BFC2
:1015CC001037BD4680BD00BF9400002080B584B0AC
:1015DC0000AF0346FB710023FB7307F10F031946A1
:1015EC000020FFF729FCFB7B23F00303DBB2FB732A
:1015FC00FA7BFB791343DBB2FB73FB7B19460020B0
:10160C00FFF786FB00BF1037BD4680BD80B584B0A8
:10161C0000AF0346FB710023BB730023FB7307F180
:10162C000E0319460020FFF707FCFB79012B03D1B1
:10163C00BB7B9B08FB7305E0FB79022B02D1BB7BC8
:10164C00DB08FB73FB7B18461037BD4680BD80B5AD
:10165C0082B000AF0023FB71FB1D1846FFF794FF0F
:10166C00FB79012B09D10220FFF7D0FF0346002B99
:10167C0003D00220FFF7AAFF0BE0FB79022B08D165
:10168C000120FFF7C3FF0346002B02D00120FFF718
:10169C009DFF00BF0837BD4680BD000080B485B0FB
:1016AC0000AF154B9B69144A43F001039361124B35
:1016BC009B6903F00103BB60BB680F4BDB690E4AEF
:1016CC0043F08053D3610C4BDB6903F080537B6098
:1016DC007B680A4B5B68FB60FB6823F0E063FB6094
:1016EC00FB6843F00073FB60044AFB68536000BF67
:1016FC001437BD4680BC704700100240000001400A
:10170C0080B588B000AF786007F1100300221A6032
:10171C005A609A60DA607B681B68244A934241D114
:10172C00234BDB69224A43F00073D361204BDB6906
:10173C0003F00073FB60FB681D4B9B691C4A43F074
:10174C00040393611A4B9B6903F00403BB60BB68F1
:10175C004FF400633B6100237B610023BB6107F105
:10176C0010031946134801F09DF84FF480533B6168
:10177C0002237B610323FB6107F1100319460D481B
:10178C0001F090F800220021142001F060F81420E0
:10179C0001F079F800220021152001F058F81520ED
:1017AC0001F071F800BF2037BD4680BD00640040D9
:1017BC00001002400008014080B400AF00BFBD46DD
:1017CC0080BC704780B400AFFEE780B400AFFEE78A
:1017DC0080B400AFFEE780B400AFFEE780B400AF8A
:1017EC0000BFBD4680BC704780B400AF00BFBD4693
:1017FC0080BC704780B400AF00BFBD4680BC704752
:10180C0080B500AF094B1B680133084A1360074BC6
:10181C001A68074B1B689A4204D1FEF713FF034B5F
:10182C0000221A6000F0EAF800BF80BD980000208A
:10183C000000002080B500AF024800F035FD00BF6D
:10184C0080BD00BF9C00002080B500AF024800F0B6
:10185C002BFD00BF80BD00BF9C00002080B500AFF9
:10186C004FF4006001F0AAF900BF80BD80B400AF56
:10187C0000BFBD4680BC704780B485B000AF00236C
:10188C00FB600023BB6000237B602C4B5B6803F088
:10189C000C03FB60FB68042B07D0082B09D0002B32
:1018AC0033D1274B274A1A6033E0254B254A1A605F
:1018BC002FE0224B5B6803F47013BB601F4B5B681B
:1018CC0003F480337B60BB689B0C0233BB607B688A
:1018DC00002B06D1BB681C4A02FB03F3184A1360A9
:1018EC0017E0164B5B6803F40033002B06D0BB6883
:1018FC00154A02FB03F3124A13600AE0BB68114A53
:10190C0002FB03F30E4A136003E00D4B0D4A1A6001
:10191C0000BF0A4B5B681B0903F00F030B4AD35C37
:10192C00FB60074B1A68FB6822FA03F3044A136046
:10193C0000BF1437BD4680BC704700BF001002408A
:10194C000400002000127A0000093D00C82C000899
:10195C000C480D490D4A002302E0D458C4500433FE
:10196C00C4188C42F9D30A4A0A4C002301E01360D4
:10197C000432A242FBD3FFF779FF01F037F9FEF7EF
:10198C002BFC7047000000200C000020E02C00080D
:10199C000C00002000010020FEE7000080B500AF25
:1019AC00064B1B68054A43F010031360032000F03C
:1019BC0043FFFFF773FE0023184680BD0020024052
:1019CC0080B500AF094B4FF0FF32DA60074B0022B5
:1019DC001A61064B4FF0FF32DA60044B0022DA60DA
:1019EC0000F006F80023184680BD00BF001002402E
:1019FC0080B400AF00BFBD4680BC704780B400AF60
:101A0C00054B1B781A46054B1B681344034A13609D
:101A1C0000BFBD4680BC704708000020FC000020C1
:101A2C0080B400AF024B1B681846BD4680BC7047A3
:101A3C00FC00002080B584B000AF7860FFF7F0FFA9
:101A4C00B8607B68FB60FB68B3F1FF3F05D0094BC6
:101A5C001B781A46FB681344FB6000BFFFF7E0FFDE
:101A6C000246BB68D31AFA689A42F7D800BF1037FF
:101A7C00BD4680BD0800002080B584B000AF786002
:101A8C007B68002B01D10123EDE07B6893F82030BB
:101A9C00DBB2002B02D17868FFF732FE7B681B6843
:101AAC001A687B681B6842F001021A60FFF7B8FFE6
:101ABC00F86012E0FFF7B4FF0246FB68D31A0A2B5A
:101ACC000BD97B685B6A43F400327B685A627B6893
:101ADC00052283F820200123C5E07B681B685B6826
:101AEC0003F00103002BE5D07B681B681A687B6848
:101AFC001B6822F002021A60FFF792FFF86012E0F6
:101B0C00FFF78EFF0246FB68D31A0A2B0BD97B68B2
:101B1C005B6A43F400327B685A627B68052283F867
:101B2C00202001239FE07B681B685B6803F00203A5
:101B3C00002BE5D17B681B7E012B08D17B681B68D1
:101B4C001A687B681B6842F080021A6007E07B68A9
:101B5C001B681A687B681B6822F080021A607B681D
:101B6C005B7E012B08D17B681B681A687B681B683D
:101B7C0042F040021A6007E07B681B681A687B68B9
:101B8C001B6822F040021A607B689B7E012B08D1F7
:101B9C007B681B681A687B681B6842F020021A601D
:101BAC0007E07B681B681A687B681B6822F02002C0
:101BBC001A607B68DB7E012B08D17B681B681A6876
:101BCC007B681B6822F010021A6007E07B681B68B8
:101BDC001A687B681B6842F010021A607B681B7FD6
:101BEC00012B08D17B681B681A687B681B6842F064
:101BFC0008021A6007E07B681B681A687B681B6820
:101C0C0022F008021A607B685B7F012B08D17B688D
:101C1C001B681A687B681B6842F004021A6007E0B4
:101C2C007B681B681A687B681B6822F004021A60C8
:101C3C007B689A687B68DB681A437B681B691A436C
:101C4C007B685B6942EA03017B685B685A1E7B68B0
:101C5C001B680A43DA617B6800225A627B680122A6
:101C6C0083F82020002318461037BD4680BD80B471
:101C7C0087B000AF786039607B681B687B617B68DC
:101C8C0093F82030FB74FB7C012B03D0FB7C022BE4
:101C9C0040F0AA807B69D3F8003243F001027B69E3
:101CAC00C3F800223B685B6903F01F03012202FAB0
:101CBC0003F3FB607B69D3F81C22FB68DB431A40FF
:101CCC007B69C3F81C223B68DB69002B23D17B6941
:101CDC00D3F80C22FB68DB431A407B69C3F80C2257
:101CEC003B68DB6819043B685B689BB23A685269D5
:101CFC0019437B69483243F832103B689B681904DE
:101D0C003B681B689AB23B685B690A437969483344
:101D1C00DB000B445A603B68DB69012B22D17B69E9
:101D2C00D3F80C22FB681A437B69C3F80C223B687E
:101D3C001B6819043B685B689BB23A68526919438B
:101D4C007B69483243F832103B689B6819043B6846
:101D5C00DB689AB23B685B690A4379694833DB00FC
:101D6C000B445A603B689B69002B09D17B69D3F803
:101D7C000422FB68DB431A407B69C3F8042207E0AA
:101D8C007B69D3F80422FB681A437B69C3F80422ED
:101D9C003B681B69002B09D17B69D3F81422FB68C3
:101DAC00DB431A407B69C3F8142207E07B69D3F844
:101DBC001422FB681A437B69C3F814223B681B6A24
:101DCC00012B07D17B69D3F81C22FB681A437B6972
:101DDC00C3F81C227B69D3F8003223F001027B6923
:101DEC00C3F80022002306E07B685B6A43F4802280
:101DFC007B685A62012318461C37BD4680BC70476D
:101E0C0080B584B000AF78607B6893F82030DBB28B
:101E1C00012B2ED17B68022283F820207B681B6863
:101E2C001A687B681B6822F001021A60FFF7F8FD44
:101E3C00F86012E0FFF7F4FD0246FB68D31A0A2B98
:101E4C000BD97B685B6A43F400327B685A627B680F
:101E5C00052283F82020012312E07B681B685B6855
:101E6C0003F00103002BE5D17B6800225A620023AA
:101E7C0006E07B685B6A43F400227B685A620123AC
:101E8C0018461037BD4680BD80B489B000AFF860ED
:101E9C00B9607A603B60FB6893F82030FB77FB6895
:101EAC001B689B68BB61FB7F012B03D0FB7F022B64
:101EBC0040F0B880BB6903F08063002B0AD1BB698A
:101ECC0003F00063002B05D1BB6903F08053002B9A
:101EDC0000F0A080BB691B0E03F003037B617B69E0
:101EEC00022B07D9FB685B6A43F40002FB685A6259
:101EFC0001239EE001227B699A403B681A60BB6813
:101F0C009B68002B0DD1BB681B685A05BB68DB684E
:101F1C00F96809681A437B6918331B010B441A6072
:101F2C000FE0BB685B68DA00BB689B681A43BB6850
:101F3C00DB68F96809681A437B6918331B010B4489
:101F4C001A60FB681968BB681A697B6918331B0136
:101F5C000B4404331A60BB681B7D012B11D1FB6849
:101F6C001A687B6918331B01134404331B68FA6825
:101F7C00116843F480727B6918331B010B440433E2
:101F8C001A607B6807331B781A067B6806331B784C
:101F9C001B041A437B6805331B781B0213437A68B6
:101FAC00043212781046FA68116843EA00027B6921
:101FBC001B010B4403F5C6731A607B6803331B7853
:101FCC001A067B6802331B781B041A437B680133A7
:101FDC001B781B0213437A6812781046FA68116852
:101FEC0043EA00027B691B010B4403F5C4731A60BE
:101FFC00FB681A687B6918331B0113441B68FA6869
:10200C00116843F001027B6918331B010B441A6001
:10201C0000230EE0FB685B6A43F40012FB685A6213
:10202C00012306E0FB685B6A43F48022FB685A627A
:10203C00012318462437BD4680BC704780B487B056
:10204C0000AFF860B9607A603B60FB6893F82030B1
:10205C00FB75FB7D012B03D0FB7D022B40F0F38045
:10206C00BB68002B0ED1FB681B68DB6803F0030315
:10207C00002B16D1FB685B6A43F40012FB685A62B2
:10208C000123E7E0FB681B681B6903F00303002BCB
:10209C0007D1FB685B6A43F40012FB685A620123A8
:1020AC00D8E0FB681A68BB681B331B0113441B6820
:1020BC0003F004027B689A607B689B68002B0CD150
:1020CC00FB681A68BB681B331B0113441B685B0D50
:1020DC00C3F30A027B681A600BE0FB681A68BB68E2
:1020EC001B331B0113441B68DB0823F060427B6825
:1020FC005A60FB681A68BB681B331B0113441B68CE
:10210C0003F002027B68DA60FB681A68BB681B3359
:10211C001B01134404331B6803F00F027B681A6124
:10212C00FB681A68BB681B331B01134404331B6820
:10213C001B0ADAB27B689A61FB681A68BB681B33AE
:10214C001B01134404331B681B0C9AB27B685A6145
:10215C00FB681A68BB681B01134403F5DC731B682E
:10216C00DAB23B681A70FB681A68BB681B0113442F
:10217C0003F5DC731B681A0A3B680133D2B21A7080
:10218C00FB681A68BB681B01134403F5DC731B68FE
:10219C001A0C3B680233D2B21A70FB681A68BB681F
:1021AC001B01134403F5DC731B681A0E3B680333E5
:1021BC00D2B21A70FB681A68BB681B01134403F592
:1021CC00DE731A683B680433D2B21A70FB681A6863
:1021DC00BB681B01134403F5DE731B681A0A3B68CA
:1021EC000533D2B21A70FB681A68BB681B01134422
:1021FC0003F5DE731B681A0C3B680633D2B21A70F7
:10220C00FB681A68BB681B01134403F5DE731B687B
:10221C001A0E3B680733D2B21A70BB68002B08D178
:10222C00FB681B68DA68FB681B6842F02002DA6006
:10223C0007E0FB681B681A69FB681B6842F0200208
:10224C001A61002306E0FB685B6A43F48022FB689A
:10225C005A62012318461C37BD4680BC704780B4B7
:10226C0085B000AF786039607B6893F82030FB73E1
:10227C00FB7B012B02D0FB7B022B09D17B681B68FB
:10228C0059697B681B683A680A435A61002306E067
:10229C007B685B6A43F480227B685A620123184690
:1022AC001437BD4680BC704780B58AB000AF7860EB
:1022BC0000237B627B681B685B693B627B681B68E5
:1022CC005B68FB617B681B689B68BB617B681B68F8
:1022DC00DB687B617B681B681B693B617B681B68E7
:1022EC009B69FB603B6A03F00103002B7CD0BB694C
:1022FC0003F00103002B23D07B681B6801229A603A
:10230C00BB6903F00203002B03D0786800F07DF961
:10231C0016E0BB6903F00403002B04D07B6A43F482
:10232C0000637B620CE0BB6903F00803002B04D054
:10233C007B6A43F480537B6202E0786800F080F99A
:10234C00BB6903F48073002B24D07B681B684FF4AB
:10235C0080729A60BB6903F40073002B03D0786819
:10236C0000F05CF916E0BB6903F48063002B04D029
:10237C007B6A43F400537B620CE0BB6903F400639B
:10238C00002B04D07B6A43F480437B6202E07868C4
:10239C0000F05FF9BB6903F48033002B24D07B6819
:1023AC001B684FF480329A60BB6903F40033002B36
:1023BC0003D0786800F03BF916E0BB6903F4802386
:1023CC00002B04D07B6A43F400437B620CE0BB69B6
:1023DC0003F40023002B04D07B6A43F480337B622C
:1023EC0002E0786800F03EF93B6A03F00803002B2A
:1023FC000CD07B6903F01003002B07D07B6A43F4ED
:10240C0000737B627B681B681022DA603B6A03F006
:10241C000403002B0BD07B6903F00803002B06D0C0
:10242C007B681B680822DA60786800F024F93B6A44
:10243C0003F00203002B09D07B681B68DB6803F0F8
:10244C000303002B02D07868FEF724F93B6A03F0F3
:10245C004003002B0CD03B6903F01003002B07D07A
:10246C007B6A43F480637B627B681B6810221A6171
:10247C003B6A03F02003002B0BD03B6903F00803ED
:10248C00002B06D07B681B6808221A61786800F064
:10249C0004F93B6A03F01003002B09D07B681B681E
:1024AC001B6903F00303002B02D0786800F0ECF8F2
:1024BC003B6A03F40033002B0BD0FB6903F01003D1
:1024CC00002B06D07B681B6810225A60786800F0DD
:1024DC00EDF83B6A03F48033002B0BD0FB6903F05F
:1024EC000803002B06D07B681B6808225A607868AA
:1024FC0000F0E5F83B6A03F40043002B75D0FB6950
:10250C0003F00403002B6CD03B6A03F48073002BA4
:10251C0008D0FB6803F00103002B03D07B6A43F067
:10252C0001037B623B6A03F40073002B08D0FB6849
:10253C0003F00203002B03D07B6A43F002037B629F
:10254C003B6A03F48063002B08D0FB6803F00403A0
:10255C00002B03D07B6A43F004037B623B6A03F4D9
:10256C000063002B3DD0FB6803F07003002B38D0C8
:10257C00FB6803F07003302B17D0302B04D8102BD2
:10258C0009D0202B0CD024E0502B18D0602B1BD062
:10259C00402B0FD01DE07B6A43F008037B6218E0F0
:1025AC007B6A43F010037B6213E07B6A43F02003E9
:1025BC007B620EE07B6A43F040037B6209E07B6A3E
:1025CC0043F080037B6204E07B6A43F480737B629C
:1025DC0000BF7B681B689A697B681B6822F07002DD
:1025EC009A617B681B6804225A607B6A002B08D0B6
:1025FC007B685A6A7B6A1A437B685A62786800F077
:10260C0067F800BF2837BD4680BD80B483B000AFEB
:10261C00786000BF0C37BD4680BC704780B483B077
:10262C0000AF786000BF0C37BD4680BC704780B4EB
:10263C0083B000AF786000BF0C37BD4680BC7047DC
:10264C0080B483B000AF786000BF0C37BD4680BC4F
:10265C00704780B483B000AF786000BF0C37BD46C4
:10266C0080BC704780B483B000AF786000BF0C377B
:10267C00BD4680BC704780B483B000AF786000BFAB
:10268C000C37BD4680BC704780B483B000AF786017
:10269C0000BF0C37BD4680BC704780B483B000AF20
:1026AC00786000BF0C37BD4680BC704780B483B0E7
:1026BC0000AF786000BF0C37BD4680BC704780B45B
:1026CC0083B000AF786000BF0C37BD4680BC70474C
:1026DC0080B483B000AF786000BF0C37BD4680BCBF
:1026EC007047000080B485B000AF78607B6803F061
:1026FC000703FB600C4BDB68BB60BA684FF6FF034B
:10270C001340BB60FB681A02BB68134343F0BF6302
:10271C0043F40033BB60044ABB68D36000BF14377A
:10272C00BD4680BC704700BF00ED00E080B400AF38
:10273C00044BDB681B0A03F007031846BD4680BC3C
:10274C00704700BF00ED00E080B483B000AF0346DB
:10275C00FB7197F90730002B0BDBFB7903F01F02A1
:10276C00064997F907305B09012000FA02F241F89B
:10277C00232000BF0C37BD4680BC704700E100E051
:10278C0080B483B000AF03463960FB7197F9073012
:10279C00002B0ADB3B68DAB20C4997F907301201BF
:1027AC00D2B20B4483F800230AE03B68DAB2084942
:1027BC00FB7903F00F03043B1201D2B20B441A76DF
:1027CC0000BF0C37BD4680BC704700BF00E100E085
:1027DC0000ED00E080B489B000AFF860B9607A60B9
:1027EC00FB6803F00703FB61FB69C3F10703042BD0
:1027FC0028BF0423BB61FB690433062B02D9FB6998
:10280C00033B00E000237B614FF0FF32BB6902FA0F
:10281C0003F3DA43BB681A407B699A404FF0FF31EF
:10282C007B6901FA03F3D9437B680B4013431846C9
:10283C002437BD4680BC704780B582B000AF78604D
:10284C007868FFF74FFF00BF0837BD4680BD80B5E5
:10285C0086B000AF0346B9607A60FB7300237B61DE
:10286C00FFF764FF78617A68B9687869FFF7B2FF9F
:10287C00024697F90F3011461846FFF781FF00BF4B
:10288C001837BD4680BD80B582B000AF0346FB71E2
:10289C0097F907301846FFF757FF00BF0837BD46BA
:1028AC0080BD000080B48BB000AF7860396000232D
:1028BC007B6200233B6227E101227B6A02FA03F36D
:1028CC00FB613B681B68FA691340BB61BA69FB6921
:1028DC009A4240F016813B685B68122B34D0122B65
:1028EC000DD8022B2BD0022B04D8002B31D0012B6E
:1028FC001CD048E0032B43D0112B1BD043E0894A5A
:10290C00934226D0874A934206D8874A934220D0D6
:10291C00864A93421DD036E0854A934219D0854AA7
:10292C00934216D0844A934213D02CE03B68DB6868
:10293C003B6228E03B68DB6804333B6223E03B6886
:10294C00DB6808333B621EE03B68DB680C333B62A0
:10295C0019E03B689B68002B02D104233B6212E018
:10296C003B689B68012B05D108233B627B68FA69A5
:10297C001A6108E008233B627B68FA695A6102E03D
:10298C0000233B6200BFBB69FF2B01D87B6801E0D1
:10299C007B6804337B61BB69FF2B02D87B6A9B008D
:1029AC0002E07B6A083B9B003B617B691A680F2144
:1029BC003B6901FA03F3DB431A40396A3B6901FABC
:1029CC0003F31A437B691A603B685B6803F080531E
:1029DC00002B00F09680594B9B69584A43F0010339
:1029EC009361564B9B6903F00103BB60BB68544A6F
:1029FC007B6A9B08023352F82330FB607B6A03F03E
:102A0C0003039B000F2202FA03F3DB43FA68134023
:102A1C00FB607B684B4A934213D07B684A4A9342D3
:102A2C000DD07B68494A934207D07B68484A934251
:102A3C0001D1032306E0042304E0022302E0012376
:102A4C0000E000237A6A02F0030292009340FA68D5
:102A5C001343FB603A497B6A9B080233FA6841F8DE
:102A6C0023203B685B6803F48033002B06D0394B82
:102A7C001A683849BB6913430B6006E0354B1A687A
:102A8C00BB69DB43334913400B603B685B6803F461
:102A9C000033002B06D02F4B5A682E49BB691343C9
:102AAC004B6006E02B4B5A68BB69DB43294913404A
:102ABC004B603B685B6803F48013002B06D0254BFE
:102ACC009A682449BB6913438B6006E0214B9A68D2
:102ADC00BB69DB431F4913408B603B685B6803F4A5
:102AEC000013002B06D01B4BDA681A49BB69134341
:102AFC00CB6006E0174BDA68BB69DB431549134022
:102B0C00CB607B6A01337B623B681A687B6A22FA72
:102B1C0003F3002B7FF4D0AE00BF2C37BD4680BC36
:102B2C00704700BF000021100000111000001210AF
:102B3C000000311000003210000022100010024082
:102B4C000000014000080140000C01400010014051
:102B5C00001401400004014080B483B000AF7860E1
:102B6C000B467B8013467B707B78002B03D07A88D6
:102B7C007B681A6103E07B881A047B681A6100BFCA
:102B8C000C37BD4680BC704780B485B000AF786010
:102B9C000B467B807B68DB68FB607A88FB681340A4
:102BAC001A04FB68D9437B880B401A437B681A6173
:102BBC0000BF1437BD4680BC7047000080B582B0A2
:102BCC0000AF0346FB80084B5A69FB881340002B6F
:102BDC0006D0054AFB885361FB881846FDF784FD37
:102BEC0000BF0837BD4680BD0004014070B500250C
:102BFC000C4E0D4CA41BA410A54209D100F01AF8E0
:102C0C0000250A4E0A4CA41BA410A54205D170BD88
:102C1C0056F8253098470135EEE756F82530984799
:102C2C000135F2E7D82C0008D82C0008D82C000865
:102C3C00DC2C0008F8B500BFF8BC08BC9E467047F9
:0C2C4C00F8B500BFF8BC08BC9E467047FD
:102C5800424F4F544C4F414445520000666C6173DB
:102C680068696E672E2E2E00737769746368207406
:102C78006F204150503200006E6F204150500000CC
:102C8800617661696C61626C652E2E2E0000000011
:102C980073776974636820746F2041505031000065
:102CA8006A756D70696E6720746F204150503100ED
:102CB8006A756D70696E6720746F204150503200DC
:102CC80000000000000000000102030406070809D4
:042CD80031010008BE
:042CDC000D010008DE
:0C2CE0000F0000000024F40001000000C0
:040000050800195D79
:00000001FF
