:020000040800F2
:10000000005000201D080008810700088D07000827
:1000100093070008990700089F07000800000000E8
:10002000000000000000000000000000A50700081C
:10003000B107000800000000BD070008C90700085C
:1000400065080008650800086508000865080008DC
:1000500065080008650800086508000865080008CC
:1000600065080008650800086508000865080008BC
:1000700065080008650800086508000865080008AC
:10008000650800086508000865080008650800089C
:10009000D5070008E907000865080008650800089A
:1000A000650800086508000865080008650800087C
:1000B000650800086508000865080008650800086C
:1000C000650800086508000865080008650800085C
:1000D00065080008FD0700086508000865080008B5
:1000E00065080008650800086508000800000000B1
:1000F0000000000000000000000000000000000000
:0C01000000000000000000005FF808F1A3
:10010C0010B5054C237833B9044B13B10448AFF345
:10011C0000800123237010BD0C00002000000000A3
:10012C00B82C000808B5034B1BB103490348AFF3C7
:10013C00008008BD0000000010000020B82C000852
:10014C0080B400AF0E4B40F241329A600C4BDB682E
:10015C000B4A43F00803D360094BDB68084A43F0B1
:10016C000403D360064BDB68054A43F40053D360A9
:10017C00034B00221A6000BFBD4680BC704700BF15
:10018C000038014080B485B000AF0346FB710023FA
:10019C00FB73094AFB79536000BF074B1B689B112B
:1001AC0003F00103002BF8D0FB7B0133FB7300BF82
:1001BC001437BD4680BC70470038014080B485B010
:1001CC0000AF78600123FB730A4B1B685B1103F0D3
:1001DC000103012B05D1074B5B68DAB27B681A70FF
:1001EC0001E00023FB73FB7B18461437BD4680BC33
:1001FC00704700BF0038014080B582B000AF786016
:10020C00064B074A0021786800F06CFE054B012272
:10021C001A7000BF0837BD4680BD00BF000100202A
:10022C001C0100202800002080B483B000AF002304
:10023C00FB7106E0FB79074A0021D154FB790133AD
:10024C00FB71FB79632BF5D900BF0C37BD4680BC25
:10025C00704700BF2C00002080B582B000AF00F0CA
:10026C00FDFA00F095F800F04BF900F0CDF800F035
:10027C001DF9404800F018FDFFF762FF3E4B0122CC
:10028C001A613D4B00229A603B4B0022DA603A4BDC
:10029C0030221A60394B01221A61384B00229A60C5
:1002AC00364B0022DA60354B40F203121A60022101
:1002BC00304800F028FF00233B710023FB71002322
:1002CC00BB7100233B710023FB710023BB7117E052
:1002DC00FB792B4A13441846FFF770FF03463B711A
:1002EC003B79002B0CD0FB79254AD35C0A2B04D12B
:1002FC000023FB710123BB7102E0FB790133FB711D
:10030C00BB79002BE4D000237B7117E07B791C4A6E
:10031C001A441C4B1949174800F00AFD4FF40041D0
:10032C00194801F063FC7B7901337B7100BF174BDB
:10033C001B78002BFBD0154B00221A707B79104ACE
:10034C00D35C0A2BE2D17B790D4A1A440D4B0B4935
:10035C00084800F0EDFC00BF0C4B1B78002BFBD0C9
:10036C000A4B00221A70FFF75FFF0420FFF70AFF09
:10037C00A7E700BF900000201C0100200401002012
:10038C002C000020FC000020001001402800002060
:10039C0080B590B000AF07F1180328220021184651
:1003AC0002F07CFC3B1D00221A605A609A60DA60F5
:1003BC001A610223BB610123BB621023FB62002381
:1003CC007B6307F11803184601F02AFC0346002B47
:1003DC0001D000F0E9F80F237B600023BB60002301
:1003EC00FB6000233B6100237B613B1D0021184611
:1003FC0001F096FE0346002B01D000F0D5F800BFAB
:10040C004037BD4680BD000080B58AB000AF254B9B
:10041C00254A1A60234B10225A60224B00229A6004
:10042C00204B0022DA601F4B4FF480321A611D4BB7
:10043C0000225A611B4B00221A761A4B00225A7664
:10044C00184B00229A76174B0022DA76154B0022B5
:10045C001A77144B00225A77124800F061FA0346BF
:10046C00002B01D000F0A0F801233B620A237B6132
:10047C0000233B6100233B6000237B600023BB60B7
:10048C000023FB600023BB610123FB6100237B6223
:10049C003B461946034800F03EFB00BF2837BD46DB
:1004AC0080BD00BF900000200064004080B500AF0C
:1004BC00114B124A1A60104B4FF416525A600E4BE5
:1004CC0000229A600C4B0022DA600B4B00221A615E
:1004DC00094B0C225A61084B00229A61064B0022F0
:1004EC00DA61054801F0B8FF0346002B01D000F09B
:1004FC005BF800BF80BD00BFB80000200038014091
:10050C0080B586B000AF07F1080300221A605A606C
:10051C009A60DA60214B9B69204A43F01003936187
:10052C001E4B9B6903F010037B607B681B4B9B6924
:10053C001A4A43F004039361184B9B6903F00403BC
:10054C003B603B6800224FF40041154801F036FB3C
:10055C0000220221134801F031FB4FF40043BB6031
:10056C000123FB6000233B6102237B6107F108033D
:10057C0019460B4801F0C8F90223BB600123FB604C
:10058C0000233B6102237B6107F1080319460548F0
:10059C0001F0BAF900BF1837BD4680BD001002400B
:1005AC00001001400008014080B400AF72B6FEE7B5
:1005BC0080B485B000AF154B9B69144A43F001031E
:1005CC009361124B9B6903F00103BB60BB680F4B3B
:1005DC00DB690E4A43F08053D3610C4BDB6903F0AB
:1005EC0080537B607B680A4B5B68FB60FB6823F085
:1005FC00E063FB60FB6843F00073FB60044AFB683C
:10060C00536000BF1437BD4680BC704700100240D9
:10061C000000014080B588B000AF786007F110038E
:10062C0000221A605A609A60DA607B681B68244A60
:10063C00934241D1234BDB69224A43F00073D361CF
:10064C00204BDB6903F00073FB60FB681D4B9B695F
:10065C001C4A43F0040393611A4B9B6903F0040397
:10066C00BB60BB684FF400633B6100237B610023DC
:10067C00BB6107F110031946134801F045F94FF41B
:10068C0080533B6102237B610323FB6107F1100361
:10069C0019460D4801F038F900220021142001F010
:1006AC004CF8142001F065F800220021152001F00F
:1006BC0044F8152001F05DF800BF2037BD4680BD21
:1006CC0000640040001002400008014080B588B072
:1006DC0000AF786007F1100300221A605A609A602C
:1006EC00DA607B681B68204A934239D11F4B9B69A7
:1006FC001E4A43F4804393611C4B9B6903F4804373
:10070C00FB60FB68194B9B69184A43F00403936127
:10071C00164B9B6903F00403BB60BB684FF400737A
:10072C003B6102237B610323FB6107F11003194634
:10073C000F4801F0E9F84FF480633B6100237B61C3
:10074C000023BB6107F110031946094801F0DCF8DE
:10075C0000220021252000F0F0FF252001F009F8EF
:10076C0000BF2037BD4680BD00380140001002405C
:10077C000008014080B400AF00BFBD4680BC70478C
:10078C0080B400AFFEE780B400AFFEE780B400AFEA
:10079C00FEE780B400AFFEE780B400AF00BFBD46FB
:1007AC0080BC704780B400AF00BFBD4680BC7047B2
:1007BC0080B400AF00BFBD4680BC704780B500AFB1
:1007CC0000F092F800BF80BD80B500AF024800F089
:1007DC00BFFC00BF80BD00BF9000002080B500AF03
:1007EC00024800F0B5FC00BF80BD00BF90000020A7
:1007FC0080B500AF024801F07DFE00BF80BD00BF98
:10080C00B800002080B400AF00BFBD4680BC70476C
:10081C000C480D490D4A002302E0D458C45004334F
:10082C00C4188C42F9D30A4A0A4C002301E0136025
:10083C000432A242FBD3FFF7E5FF02F00BFAFFF7FD
:10084C000BFD7047000000200C000020042D000858
:10085C000C0000203C010020FEE7000080B500AF3A
:10086C00084B1B68074A43F010031360032000F089
:10087C0059FF002000F008F8FFF79AFE00231846F5
:10088C0080BD00BF0020024080B582B000AF786010
:10089C00124B1A68124B1B7819464FF47A73B3FB40
:1008AC00F1F3B2FBF3F3184600F071FF0346002B93
:1008BC0001D001230EE07B680F2B0AD80022796847
:1008CC004FF0FF3000F039FF064A7B6813600023BD
:1008DC0000E0012318460837BD4680BD000000200B
:1008EC00080000200400002080B400AF054B1B78EA
:1008FC001A46054B1B681344034A136000BFBD46E0
:10090C0080BC7047080000203801002080B400AF84
:10091C00024B1B681846BD4680BC7047380100204E
:10092C0080B584B000AF78607B68002B01D10123C7
:10093C00EDE07B6893F82030DBB2002B02D17868B5
:10094C00FFF768FE7B681B681A687B681B6842F0BF
:10095C0001021A60FFF7DAFFF86012E0FFF7D6FF2A
:10096C000246FB68D31A0A2B0BD97B685B6A43F4EB
:10097C0000327B685A627B68052283F820200123B1
:10098C00C5E07B681B685B6803F00103002BE5D0B6
:10099C007B681B681A687B681B6822F002021A606D
:1009AC00FFF7B4FFF86012E0FFF7B0FF0246FB68F8
:1009BC00D31A0A2B0BD97B685B6A43F400327B6831
:1009CC005A627B68052283F8202001239FE07B6814
:1009DC001B685B6803F00203002BE5D17B681B7E70
:1009EC00012B08D17B681B681A687B681B6842F076
:1009FC0080021A6007E07B681B681A687B681B68BA
:100A0C0022F080021A607B685B7E012B08D17B6828
:100A1C001B681A687B681B6842F040021A6007E08A
:100A2C007B681B681A687B681B6822F040021A609E
:100A3C007B689B7E012B08D17B681B681A687B68DE
:100A4C001B6842F020021A6007E07B681B681A687A
:100A5C007B681B6822F020021A607B68DB7E012B0E
:100A6C0008D17B681B681A687B681B6822F010022F
:100A7C001A6007E07B681B681A687B681B6842F089
:100A8C0010021A607B681B7F012B08D17B681B68E6
:100A9C001A687B681B6842F008021A6007E07B68E2
:100AAC001B681A687B681B6822F008021A607B6856
:100ABC005B7F012B08D17B681B681A687B681B68FD
:100ACC0042F004021A6007E07B681B681A687B68B6
:100ADC001B6822F004021A607B689A687B68DB68EA
:100AEC001A437B681B691A437B685B6942EA030102
:100AFC007B685B685A1E7B681B680A43DA617B68FB
:100B0C0000225A627B68012283F8202000231846B9
:100B1C001037BD4680BD80B487B000AF78603960B7
:100B2C007B681B687B617B6893F82030FB74FB7CD3
:100B3C00012B03D0FB7C022B40F0AA807B69D3F8FD
:100B4C00003243F001027B69C3F800223B685B6909
:100B5C0003F01F03012202FA03F3FB607B69D3F855
:100B6C001C22FB68DB431A407B69C3F81C223B68E0
:100B7C00DB69002B23D17B69D3F80C22FB68DB43A8
:100B8C001A407B69C3F80C223B68DB6819043B688C
:100B9C005B689BB23A68526919437B69483243F8E7
:100BAC0032103B689B6819043B681B689AB23B681F
:100BBC005B690A4379694833DB000B445A603B6834
:100BCC00DB69012B22D17B69D3F80C22FB681A4319
:100BDC007B69C3F80C223B681B6819043B685B6893
:100BEC009BB23A68526919437B69483243F8321018
:100BFC003B689B6819043B68DB689AB23B685B698D
:100C0C000A4379694833DB000B445A603B689B69A3
:100C1C00002B09D17B69D3F80422FB68DB431A4013
:100C2C007B69C3F8042207E07B69D3F80422FB68D4
:100C3C001A437B69C3F804223B681B69002B09D15A
:100C4C007B69D3F81422FB68DB431A407B69C3F839
:100C5C00142207E07B69D3F81422FB681A437B69E2
:100C6C00C3F814223B681B6A012B07D17B69D3F8AC
:100C7C001C22FB681A437B69C3F81C227B69D3F8DE
:100C8C00003223F001027B69C3F80022002306E046
:100C9C007B685B6A43F480227B685A6201231846A6
:100CAC001C37BD4680BC704780B584B000AF7860FF
:100CBC007B6893F82030DBB2012B2ED17B680222AB
:100CCC0083F820207B681B681A687B681B6822F0FD
:100CDC0001021A60FFF71AFEF86012E0FFF716FE29
:100CEC000246FB68D31A0A2B0BD97B685B6A43F468
:100CFC0000327B685A627B68052283F8202001232E
:100D0C0012E07B681B685B6803F00103002BE5D1E4
:100D1C007B6800225A62002306E07B685B6A43F41E
:100D2C0000227B685A62012318461037BD4680BDED
:100D3C0080B489B000AFF860B9607A603B60FB6842
:100D4C0093F82030FB77FB681B689B68BB61FB7FCB
:100D5C00012B03D0FB7F022B40F0B880BB6903F062
:100D6C008063002B0AD1BB6903F00063002B05D113
:100D7C00BB6903F08053002B00F0A080BB691B0EF5
:100D8C0003F003037B617B69022B07D9FB685B6A69
:100D9C0043F40002FB685A6201239EE001227B6946
:100DAC009A403B681A60BB689B68002B0DD1BB68EE
:100DBC001B685A05BB68DB68F96809681A437B69CC
:100DCC0018331B010B441A600FE0BB685B68DA0038
:100DDC00BB689B681A43BB68DB68F96809681A43EF
:100DEC007B6918331B010B441A60FB681968BB68DC
:100DFC001A697B6918331B010B4404331A60BB68F6
:100E0C001B7D012B11D1FB681A687B6918331B0100
:100E1C00134404331B68FA68116843F480727B69CD
:100E2C0018331B010B4404331A607B6807331B789F
:100E3C001A067B6806331B781B041A437B68053340
:100E4C001B781B0213437A68043212781046FA6836
:100E5C00116843EA00027B691B010B4403F5C6735E
:100E6C001A607B6803331B781A067B6802331B7885
:100E7C001B041A437B6801331B781B0213437A68EB
:100E8C0012781046FA68116843EA00027B691B016C
:100E9C000B4403F5C4731A60FB681A687B6918333A
:100EAC001B0113441B68FA68116843F001027B694B
:100EBC0018331B010B441A6000230EE0FB685B6ABD
:100ECC0043F40012FB685A62012306E0FB685B6A7C
:100EDC0043F48022FB685A62012318462437BD462E
:100EEC0080BC704780B487B000AFF860B9607A609E
:100EFC003B60FB6893F82030FB75FB7D012B03D026
:100F0C00FB7D022B40F0F380BB68002B0ED1FB68FD
:100F1C001B68DB6803F00303002B16D1FB685B6ACC
:100F2C0043F40012FB685A620123E7E0FB681B687C
:100F3C001B6903F00303002B07D1FB685B6A43F4C6
:100F4C000012FB685A620123D8E0FB681A68BB6880
:100F5C001B331B0113441B6803F004027B689A606B
:100F6C007B689B68002B0CD1FB681A68BB681B3331
:100F7C001B0113441B685B0DC3F30A027B681A60E8
:100F8C000BE0FB681A68BB681B331B0113441B681E
:100F9C00DB0823F060427B685A60FB681A68BB6808
:100FAC001B331B0113441B6803F002027B68DA60DD
:100FBC00FB681A68BB681B331B01134404331B68A2
:100FCC0003F00F027B681A61FB681A68BB681B335D
:100FDC001B01134404331B681B0ADAB27B689A6149
:100FEC00FB681A68BB681B331B01134404331B6872
:100FFC001B0C9AB27B685A61FB681A68BB681B01B0
:10100C00134403F5DC731B68DAB23B681A70FB6897
:10101C001A68BB681B01134403F5DC731B681A0ABE
:10102C003B680133D2B21A70FB681A68BB681B01AB
:10103C00134403F5DC731B681A0C3B680233D2B201
:10104C001A70FB681A68BB681B01134403F5DC7348
:10105C001B681A0E3B680333D2B21A70FB681A680D
:10106C00BB681B01134403F5DE731A683B68043339
:10107C00D2B21A70FB681A68BB681B01134403F5E3
:10108C00DE731B681A0A3B680533D2B21A70FB6810
:10109C001A68BB681B01134403F5DE731B681A0C3A
:1010AC003B680633D2B21A70FB681A68BB681B0126
:1010BC00134403F5DE731B681A0E3B680733D2B278
:1010CC001A70BB68002B08D1FB681B68DA68FB68D8
:1010DC001B6842F02002DA6007E0FB681B681A69A3
:1010EC00FB681B6842F020021A61002306E0FB68D3
:1010FC005B6A43F48022FB685A62012318461C3752
:10110C00BD4680BC704780B485B000AF7860396054
:10111C007B6893F82030FB73FB7B012B02D0FB7BAD
:10112C00022B09D17B681B6859697B681B683A687C
:10113C000A435A61002306E07B685B6A43F4802211
:10114C007B685A62012318461437BD4680BC704731
:10115C0080B58AB000AF786000237B627B681B6827
:10116C005B693B627B681B685B68FB617B681B6827
:10117C009B68BB617B681B68DB687B617B681B6859
:10118C001B693B617B681B689B69FB603B6A03F0D6
:10119C000103002B7CD0BB6903F00103002B23D08F
:1011AC007B681B6801229A60BB6903F00203002B69
:1011BC0003D0786800F07DF916E0BB6903F00403F6
:1011CC00002B04D07B6A43F400637B620CE0BB69A8
:1011DC0003F00803002B04D07B6A43F480537B623A
:1011EC0002E0786800F080F9BB6903F48073002B8F
:1011FC0024D07B681B684FF480729A60BB6903F43F
:10120C000073002B03D0786800F05CF916E0BB6922
:10121C0003F48063002B04D07B6A43F400537B629D
:10122C000CE0BB6903F40063002B04D07B6A43F42D
:10123C0080437B6202E0786800F05FF9BB6903F4DD
:10124C008033002B24D07B681B684FF480329A606B
:10125C00BB6903F40033002B03D0786800F03BF932
:10126C0016E0BB6903F48023002B04D07B6A43F4A3
:10127C0000437B620CE0BB6903F40023002B04D019
:10128C007B6A43F480337B6202E0786800F03EF9BD
:10129C003B6A03F00803002B0CD07B6903F01003AE
:1012AC00002B07D07B6A43F400737B627B681B685E
:1012BC001022DA603B6A03F00403002B0BD07B692D
:1012CC0003F00803002B06D07B681B680822DA6049
:1012DC00786800F024F93B6A03F00203002B09D074
:1012EC007B681B68DB6803F00303002B02D0786873
:1012FC00FEF782FF3B6A03F04003002B0CD03B69E6
:10130C0003F01003002B07D07B6A43F480637B62ED
:10131C007B681B6810221A613B6A03F02003002BC8
:10132C000BD03B6903F00803002B06D07B681B68CD
:10133C0008221A61786800F004F93B6A03F0100384
:10134C00002B09D07B681B681B6903F00303002B7F
:10135C0002D0786800F0ECF83B6A03F40033002B01
:10136C000BD0FB6903F01003002B06D07B681B68C5
:10137C0010225A60786800F0EDF83B6A03F4803371
:10138C00002B0BD0FB6903F00803002B06D07B6805
:10139C001B6808225A60786800F0E5F83B6A03F491
:1013AC000043002B75D0FB6903F00403002B6CD0B9
:1013BC003B6A03F48073002B08D0FB6803F0010335
:1013CC00002B03D07B6A43F001037B623B6A03F47E
:1013DC000073002B08D0FB6803F00203002B03D032
:1013EC007B6A43F002037B623B6A03F48063002B4D
:1013FC0008D0FB6803F00403002B03D07B6A43F096
:10140C0004037B623B6A03F40063002B3DD0FB6852
:10141C0003F07003002B38D0FB6803F07003302B03
:10142C0017D0302B04D8102B09D0202B0CD024E053
:10143C00502B18D0602B1BD0402B0FD01DE07B6A9B
:10144C0043F008037B6218E07B6A43F010037B6275
:10145C0013E07B6A43F020037B620EE07B6A43F06F
:10146C0040037B6209E07B6A43F080037B6204E00B
:10147C007B6A43F480737B6200BF7B681B689A694C
:10148C007B681B6822F070029A617B681B680422DF
:10149C005A607B6A002B08D07B685A6A7B6A1A43B5
:1014AC007B685A62786800F067F800BF2837BD4641
:1014BC0080BD80B483B000AF786000BF0C37BD46F0
:1014CC0080BC704780B483B000AF786000BF0C372D
:1014DC00BD4680BC704780B483B000AF786000BF5D
:1014EC000C37BD4680BC704780B483B000AF7860C9
:1014FC0000BF0C37BD4680BC704780B483B000AFD2
:10150C00786000BF0C37BD4680BC704780B483B098
:10151C0000AF786000BF0C37BD4680BC704780B40C
:10152C0083B000AF786000BF0C37BD4680BC7047FD
:10153C0080B483B000AF786000BF0C37BD4680BC70
:10154C00704780B483B000AF786000BF0C37BD46E5
:10155C0080BC704780B483B000AF786000BF0C379C
:10156C00BD4680BC704780B483B000AF786000BFCC
:10157C000C37BD4680BC704780B483B000AF786038
:10158C0000BF0C37BD4680BC7047000080B485B0EE
:10159C0000AF78607B6803F00703FB600C4BDB68E3
:1015AC00BB60BA684FF6FF031340BB60FB681A02BE
:1015BC00BB68134343F0BF6343F40033BB60044A7E
:1015CC00BB68D36000BF1437BD4680BC704700BFFA
:1015DC0000ED00E080B400AF044BDB681B0A03F0A5
:1015EC0007031846BD4680BC704700BF00ED00E005
:1015FC0080B483B000AF0346FB7197F90730002B22
:10160C000BDBFB7903F01F02064997F907305B09E6
:10161C00012000FA02F241F8232000BF0C37BD462E
:10162C0080BC704700E100E080B483B000AF03469B
:10163C003960FB7197F90730002B0ADB3B68DAB293
:10164C000C4997F907301201D2B20B4483F80023EE
:10165C000AE03B68DAB20849FB7903F00F03043B5C
:10166C001201D2B20B441A7600BF0C37BD4680BCB7
:10167C00704700BF00E100E000ED00E080B489B0ED
:10168C0000AFF860B9607A60FB6803F00703FB6198
:10169C00FB69C3F10703042B28BF0423BB61FB695F
:1016AC000433062B02D9FB69033B00E000237B616A
:1016BC004FF0FF32BB6902FA03F3DA43BB681A40FE
:1016CC007B699A404FF0FF317B6901FA03F3D943F0
:1016DC007B680B40134318462437BD4680BC7047CB
:1016EC0080B582B000AF78607B68013BB3F1807F3E
:1016FC0001D301230FE00A4A7B68013B53600F21A1
:10170C004FF0FF30FFF790FF054B00229A60044B1F
:10171C0007221A60002318460837BD4680BD00BF5B
:10172C0010E000E080B582B000AF78607868FFF719
:10173C002DFF00BF0837BD4680BD80B586B000AF19
:10174C000346B9607A60FB7300237B61FFF742FFAD
:10175C0078617A68B9687869FFF790FF024697F963
:10176C000F3011461846FFF75FFF00BF1837BD4614
:10177C0080BD80B582B000AF0346FB7197F907308E
:10178C001846FFF735FF00BF0837BD4680BD80B552
:10179C0082B000AF78607868FFF7A2FF0346184666
:1017AC000837BD4680BD80B485B000AF786000239B
:1017BC00FB737B6893F82130022B08D07B680422E2
:1017CC009A637B68002283F82020012320E07B6849
:1017DC001B681A687B681B6822F00E021A607B6813
:1017EC001B681A687B681B6822F001021A607B6810
:1017FC001A6C7B68DB6B012101FA02F25A607B6880
:10180C00012283F821207B68002283F82020FB7BB7
:10181C0018461437BD4680BC7047000080B584B0B4
:10182C0000AF78600023FB737B6893F82130022BA8
:10183C0005D07B6804229A630123FB7351E07B681B
:10184C001B681A687B681B6822F00E021A607B68A2
:10185C001B681A687B681B6822F001021A607B689F
:10186C001B68224A934229D07B681B68204A93420A
:10187C0022D07B681B681F4A93421AD07B681B6876
:10188C001D4A934212D07B681B681C4A93420AD0B3
:10189C007B681B681A4A934202D14FF480130EE006
:1018AC004FF080730BE04FF4803308E04FF480531B
:1018BC0005E04FF4807302E0102300E00123114A8D
:1018CC0053607B68012283F821207B68002283F817
:1018DC0020207B685B6B002B03D07B685B6B78688C
:1018EC009847FB7B18461037BD4680BD0800024068
:1018FC001C000240300002404400024058000240EC
:10190C006C0002400000024080B48BB000AF7860E5
:10191C00396000237B6200233B6227E101227B6A52
:10192C0002FA03F3FB613B681B68FA691340BB6165
:10193C00BA69FB699A4240F016813B685B68122BCE
:10194C0034D0122B0DD8022B2BD0022B04D8002B09
:10195C0031D0012B1CD048E0032B43D0112B1BD0D2
:10196C0043E0894A934226D0874A934206D8874A55
:10197C00934220D0864A93421DD036E0854A93424A
:10198C0019D0854A934216D0844A934213D02CE046
:10199C003B68DB683B6228E03B68DB6804333B62F6
:1019AC0023E03B68DB6808333B621EE03B68DB6886
:1019BC000C333B6219E03B689B68002B02D104237B
:1019CC003B6212E03B689B68012B05D108233B620C
:1019DC007B68FA691A6108E008233B627B68FA6944
:1019EC005A6102E000233B6200BFBB69FF2B01D8A8
:1019FC007B6801E07B6804337B61BB69FF2B02D8F9
:101A0C007B6A9B0002E07B6A083B9B003B617B6925
:101A1C001A680F213B6901FA03F3DB431A40396A58
:101A2C003B6901FA03F31A437B691A603B685B68F4
:101A3C0003F08053002B00F09680594B9B69584A59
:101A4C0043F001039361564B9B6903F00103BB60A8
:101A5C00BB68544A7B6A9B08023352F82330FB6004
:101A6C007B6A03F003039B000F2202FA03F3DB43B0
:101A7C00FA681340FB607B684B4A934213D07B6837
:101A8C004A4A93420DD07B68494A934207D07B68FF
:101A9C00484A934201D1032306E0042304E00223C5
:101AAC0002E0012300E000237A6A02F003029200B4
:101ABC009340FA681343FB603A497B6A9B080233F4
:101ACC00FA6841F823203B685B6803F48033002BF1
:101ADC0006D0394B1A683849BB6913430B6006E0D2
:101AEC00354B1A68BB69DB43334913400B603B68C9
:101AFC005B6803F40033002B06D02F4B5A682E4939
:101B0C00BB6913434B6006E02B4B5A68BB69DB4344
:101B1C00294913404B603B685B6803F48013002B2E
:101B2C0006D0254B9A682449BB6913438B6006E0A9
:101B3C00214B9A68BB69DB431F4913408B603B68A0
:101B4C005B6803F40013002B06D01B4BDA681A49B0
:101B5C00BB691343CB6006E0174BDA68BB69DB4308
:101B6C0015491340CB607B6A01337B623B681A6872
:101B7C007B6A22FA03F3002B7FF4D0AE00BF2C3724
:101B8C00BD4680BC704700BF000021100000111042
:101B9C000000121000003110000032100000221062
:101BAC00001002400000014000080140000C014000
:101BBC0000100140001401400004014080B483B0C7
:101BCC0000AF78600B467B8013467B707B78002BD4
:101BDC0003D07A887B681A6103E07B881A047B68DF
:101BEC001A6100BF0C37BD4680BC704780B485B00D
:101BFC0000AF78600B467B807B68DB68FB607A8883
:101C0C00FB6813401A04FB68D9437B880B401A43CA
:101C1C007B681A6100BF1437BD4680BC704700005A
:101C2C0080B586B000AF78607B68002B01D10123B2
:101C3C006CE27B681B6803F00103002B00F08780CB
:101C4C00924B5B6803F00C03042B0CD08F4B5B683E
:101C5C0003F00C03082B12D18C4B5B6803F480331C
:101C6C00B3F5803F0BD1894B1B6803F40033002B79
:101C7C006CD07B685B68002B68D1012346E27B68E3
:101C8C005B68B3F5803F06D1804B1B687F4A43F4F9
:101C9C00803313602EE07B685B68002B0CD17B4B90
:101CAC001B687A4A23F480331360784B1B68774A9D
:101CBC0023F4802313601DE07B685B68B3F5A02FD1
:101CCC000CD1724B1B68714A43F4802313606F4B29
:101CDC001B686E4A43F4803313600BE06B4B1B683C
:101CEC006A4A23F480331360684B1B68674A23F4F9
:101CFC00802313607B685B68002B13D0FEF706FE15
:101D0C00386108E0FEF702FE02463B69D31A642BE9
:101D1C0001D90323FAE15D4B1B6803F40033002B5C
:101D2C00F0D014E0FEF7F2FD386108E0FEF7EEFDAE
:101D3C0002463B69D31A642B01D90323E6E1534BCA
:101D4C001B6803F40033002BF0D100E000BF7B686C
:101D5C001B6803F00203002B63D04C4B5B6803F051
:101D6C000C03002B0BD0494B5B6803F00C03082BC6
:101D7C001CD1464B5B6803F48033002B16D1434BCC
:101D8C001B6803F00203002B05D07B681B69012B39
:101D9C0001D00123BAE13D4B1B6823F0F8027B68AC
:101DAC005B69DB00394913430B603AE07B681B69C4
:101DBC00002B20D0364B01221A60FEF7A7FD3861AC
:101DCC0008E0FEF7A3FD02463B69D31A022B01D9AA
:101DDC0003239BE12D4B1B6803F00203002BF0D077
:101DEC002A4B1B6823F0F8027B685B69DB002749F0
:101DFC0013430B6015E0264B00221A60FEF786FD9C
:101E0C00386108E0FEF782FD02463B69D31A022BCB
:101E1C0001D903237AE11D4B1B6803F00203002B4D
:101E2C00F0D17B681B6803F00803002B3AD07B6869
:101E3C009B69002B19D0174B01221A60FEF766FD27
:101E4C00386108E0FEF762FD02463B69D31A022BAB
:101E5C0001D903235AE10D4B5B6A03F00203002BFB
:101E6C00F0D0012000F0DAFA1CE00A4B00221A60D4
:101E7C00FEF74CFD38610FE0FEF748FD02463B696A
:101E8C00D31A022B08D9032340E100BF00100240F3
:101E9C0000004242800442429E4B5B6A03F0020304
:101EAC00002BE9D17B681B6803F00403002B00F0C6
:101EBC00A6800023FB75974BDB6903F08053002B46
:101ECC000DD1944BDB69934A43F08053D361914B12
:101EDC00DB6903F08053BB60BB680123FB758E4B41
:101EEC001B6803F48073002B18D18B4B1B688A4A38
:101EFC0043F480731360FEF709FD386108E0FEF7C8
:101F0C0005FD02463B69D31A642B01D90323FDE07E
:101F1C00814B1B6803F48073002BF0D07B68DB686B
:101F2C00012B06D17B4B1B6A7A4A43F001031362E7
:101F3C002DE07B68DB68002B0CD1764B1B6A754A55
:101F4C0023F001031362734B1B6A724A23F00403E0
:101F5C0013621CE07B68DB68052B0CD16D4B1B6A94
:101F6C006C4A43F0040313626A4B1B6A694A43F0E0
:101F7C00010313620BE0674B1B6A664A23F00103F3
:101F8C001362644B1B6A634A23F0040313627B687D
:101F9C00DB68002B15D0FEF7B9FC38610AE0FEF7C0
:101FAC00B5FC02463B69D31A41F28832934201D9FF
:101FBC000323ABE0574B1B6A03F00203002BEED05C
:101FCC0014E0FEF7A3FC38610AE0FEF79FFC024622
:101FDC003B69D31A41F28832934201D9032395E02D
:101FEC004C4B1B6A03F00203002BEED1FB7D012B43
:101FFC0005D1484BDB69474A23F08053D3617B689A
:10200C00DB69002B00F08180424B5B6803F00C0312
:10201C00082B61D07B68DB69022B46D13F4B002239
:10202C001A60FEF773FC386108E0FEF76FFC02469D
:10203C003B69D31A022B01D9032367E0354B1B688C
:10204C0003F00073002BF0D17B681B6AB3F5803F63
:10205C0008D1304B5B6823F400327B689B682D49B8
:10206C0013434B602B4B5B6823F474127B68196A27
:10207C007B685B6A0B43274913434B60274B012258
:10208C001A60FEF743FC386108E0FEF73FFC02469D
:10209C003B69D31A022B01D9032337E01D4B1B6874
:1020AC0003F00073002BF0D02FE01C4B00221A60C1
:1020BC00FEF72CFC386108E0FEF728FC02463B6971
:1020CC00D31A022B01D9032320E0124B1B6803F017
:1020DC000073002BF0D118E07B68DB69012B01D178
:1020EC00012313E00B4B5B68FB60FB6803F480324D
:1020FC007B681B6A9A4206D1FB6803F470127B68FA
:10210C005B6A9A4201D0012300E00023184618377D
:10211C00BD4680BD0010024000700040600042428D
:10212C0080B584B000AF786039607B68002B01D13A
:10213C000123D0E06A4B1B6803F007033A689A420C
:10214C0010D9674B1B6823F0070265493B681343A2
:10215C000B60634B1B6803F007033A689A4201D08B
:10216C000123B8E07B681B6803F00203002B20D02E
:10217C007B681B6803F00403002B05D0594B5B688C
:10218C00584A43F4E06353607B681B6803F0080310
:10219C00002B05D0534B5B68524A43F46053536099
:1021AC00504B5B6823F0F0027B689B684D491343EE
:1021BC004B607B681B6803F00103002B40D07B68ED
:1021CC005B68012B07D1474B1B6803F40033002BD2
:1021DC0015D101237FE07B685B68022B07D1414B53
:1021EC001B6803F00073002B09D1012373E03D4BF6
:1021FC001B6803F00203002B01D101236BE0394B68
:10220C005B6823F003027B685B68364913434B60C1
:10221C00FEF77CFBF8600AE0FEF778FB0246FB68F1
:10222C00D31A41F28832934201D9032353E02D4B48
:10223C005B6803F00C027B685B689B009A42EBD1F5
:10224C00274B1B6803F007033A689A4210D2244BC1
:10225C001B6823F0070222493B6813430B60204B99
:10226C001B6803F007033A689A4201D0012332E05D
:10227C007B681B6803F00403002B08D0194B5B68C8
:10228C0023F4E0627B68DB68164913434B607B6880
:10229C001B6803F00803002B09D0124B5B6823F476
:1022AC0060527B681B69DB000E4913434B6000F0E6
:1022BC0021F801460B4B5B681B0903F00F030A4A1C
:1022CC00D35C21FA03F3094A1360094B1B681846C7
:1022DC00FEF7DAFA002318461037BD4680BD00BF62
:1022EC000020024000100240E42C000800000020F6
:1022FC000400002090B48AB000AF2A4B3C1D0FCBD9
:10230C0084E80F00284B1B883B800023FB610023D3
:10231C00BB6100237B6200237B6100233B62234B68
:10232C005B68FB61FB6903F00C03042B02D0082BE8
:10233C0003D02DE01E4B3B622DE0FB699B0C03F0A0
:10234C000F0307F12802134413F8243C7B61FB694B
:10235C0003F48033002B13D0144B5B685B0C03F03D
:10236C00010307F12802134413F8283CBB617B6975
:10237C000F4A02FB03F2BB69B2FBF3F37B6204E08E
:10238C007B690C4A02FB03F37B627B6A3B6202E0D3
:10239C00074B3B6200BF3B6A18462837BD4690BCD2
:1023AC00704700BFD02C0008E02C00080010024041
:1023BC0000127A0000093D0080B400AF024B1B688C
:1023CC001846BD4680BC70470000002080B500AFA9
:1023DC00FFF7F2FF0146054B5B681B0A03F007038E
:1023EC00034AD35C21FA03F3184680BD0010024067
:1023FC00F42C000880B500AFFFF7DEFF0146054B5B
:10240C005B68DB0A03F00703034AD35C21FA03F38E
:10241C00184680BD00100240F42C000880B485B032
:10242C0000AF78600A4B1B680A4AA2FB03235B0AC5
:10243C007A6802FB03F3FB6000BFFB685A1EFA606C
:10244C00002BF9D100BF1437BD4680BC704700BFCC
:10245C0000000020D34D621080B582B000AF7860D0
:10246C007B68002B01D101233FE07B6893F83D3062
:10247C00DBB2002B06D17B68002283F83C20786805
:10248C00FEF724F97B68242283F83D207B681B68C7
:10249C00DA687B681B6822F40052DA60786800F016
:1024AC004BFB7B681B681A697B681B6822F49042A3
:1024BC001A617B681B685A697B681B6822F02A02C8
:1024CC005A617B681B68DA687B681B6842F40052AF
:1024DC00DA607B6800221A647B68202283F83D2036
:1024EC007B68202283F83E20002318460837BD461F
:1024FC0080BD000080B58AB000AF78607B681B6837
:10250C001B687B627B681B68DB683B627B681B68B3
:10251C005B69FB610023BB6100237B617B6A03F079
:10252C000F03BB61BB69002B0DD17B6A03F0200349
:10253C00002B08D03B6A03F02003002B03D07868F3
:10254C0000F051FA7CE1BB69002B00F0B180FB6913
:10255C0003F00103002B05D13B6A03F49073002BAD
:10256C0000F0A6807B6A03F00103002B0AD03B6AC3
:10257C0003F48073002B05D07B681B6C43F00102C5
:10258C007B681A647B6A03F00403002B0AD0FB6996
:10259C0003F00103002B05D07B681B6C43F0020297
:1025AC007B681A647B6A03F00203002B0AD0FB6978
:1025BC0003F00103002B05D07B681B6C43F0040275
:1025CC007B681A647B6A03F00803002B0FD03B6A0C
:1025DC0003F02003002B04D1FB6903F00103002B53
:1025EC0005D07B681B6C43F008027B681A647B681F
:1025FC001B6C002B00F01F817B6A03F02003002B67
:10260C0007D03B6A03F02003002B02D0786800F05F
:10261C00EAF97B681B685B6903F04003002B14BF6D
:10262C0001230023DBB27B617B681B6C03F0080386
:10263C00002B02D17B69002B31D0786800F02CF98B
:10264C007B681B685B6903F04003002B23D07B681D
:10265C001B685A697B681B6822F040025A617B68D0
:10266C009B6B002B13D07B689B6B774A5A637B6800
:10267C009B6B1846FFF7D2F80346002B16D07B68ED
:10268C009B6B5B6B7A68926B104698470EE0786890
:10269C0000F0EEF80AE0786800F0EAF806E07868F6
:1026AC0000F0E6F87B6800221A64C4E000BFC2E0C8
:1026BC007B681B6B012B40F0A1807B6A03F010033D
:1026CC00002B00F09B803B6A03F01003002B00F002
:1026DC0095800023FB607B681B681B68FB607B6834
:1026EC001B685B68FB60FB687B681B685B6903F0BD
:1026FC004003002B4ED07B689B6B1B685B683B8256
:10270C003B8A002B00F099807B689B8D3A8A9A4219
:10271C0080F093807B683A8ADA857B689B6B9B6937
:10272C00202B2BD07B681B68DA687B681B6822F433
:10273C008072DA607B681B685A697B681B6822F0C0
:10274C0001025A617B681B685A697B681B6822F01E
:10275C0040025A617B68202283F83E207B6800226D
:10276C001A637B681B68DA687B681B6822F01002AE
:10277C00DA607B689B6B1846FFF715F87B689A8DBF
:10278C007B68DB8D9BB2D31A9BB21946786800F03C
:10279C0078F852E07B689A8D7B68DB8D9BB2D31AFC
:1027AC007B827B68DB8D9BB2002B48D07B8A002B15
:1027BC0045D07B681B68DA687B681B6822F49072D2
:1027CC00DA607B681B685A697B681B6822F001021F
:1027DC005A617B68202283F83E207B6800221A63B2
:1027EC007B681B68DA687B681B6822F01002DA6071
:1027FC007B8A1946786800F044F820E07B6A03F085
:10280C008003002B08D03B6A03F08003002B03D01D
:10281C00786800F081F813E07B6A03F04003002B2A
:10282C000ED03B6A03F04003002B09D0786800F00F
:10283C00C2F800BF04E000BF02E000BF00E000BF30
:10284C002837BD4680BD00BFFD28000880B483B08A
:10285C0000AF786000BF0C37BD4680BC704780B4B9
:10286C0083B000AF786000BF0C37BD4680BC7047AA
:10287C0080B483B000AF786000BF0C37BD4680BC1D
:10288C00704780B483B000AF78600B467B8000BF8C
:10289C000C37BD4680BC704780B483B000AF786005
:1028AC007B681B68DA687B681B6822F49072DA60BC
:1028BC007B681B685A697B681B6822F001025A61AD
:1028CC007B681B6B012B07D17B681B68DA687B6804
:1028DC001B6822F01002DA607B68202283F83E200D
:1028EC007B6800221A6300BF0C37BD4680BC704762
:1028FC0080B584B000AF78607B685B6AFB60FB6876
:10290C000022DA85FB680022DA84F868FFF7B0FF52
:10291C0000BF1037BD4680BD80B485B000AF786075
:10292C007B6893F83D30DBB2212B3ED17B689B68F2
:10293C00B3F5805F14D17B681B69002B10D17B68C9
:10294C001B6AFB60FB681B881A467B681B68C2F31A
:10295C0008025A607B681B6A9A1C7B681A6208E042
:10296C007B681B6A591C7A6811621A787B681B6831
:10297C005A607B68DB8C9BB2013B9BB27A68194630
:10298C00D184002B0FD17B681B68DA687B681B68CD
:10299C0022F08002DA607B681B68DA687B681B684F
:1029AC0042F04002DA60002300E00223184614379C
:1029BC00BD4680BC704780B582B000AF78607B6844
:1029CC001B68DA687B681B6822F04002DA607B685F
:1029DC00202283F83D207868FFF738FF0023184643
:1029EC000837BD4680BD80B586B000AF78607B6887
:1029FC0093F83E30DBB2222B40F099807B689B68C9
:102A0C00B3F5805F17D17B681B69002B13D10023B2
:102A1C007B617B689B6A3B617B681B685B689BB2D4
:102A2C00C3F308039AB23B691A807B689B6A9A1CB1
:102A3C007B689A6226E07B689B6A7B6100233B6122
:102A4C007B689B68B3F5805F07D07B689B68002B25
:102A5C000AD17B681B69002B06D17B681B685B68FD
:102A6C00DAB27B691A7008E07B681B685B68DBB2C2
:102A7C0003F07F03DAB27B691A707B689B6A5A1C7D
:102A8C007B689A627B68DB8D9BB2013B9BB27A6858
:102A9C001946D185002B48D17B681B68DA687B68A6
:102AAC001B6822F02002DA607B681B68DA687B689E
:102ABC001B6822F48072DA607B681B685A697B6839
:102ACC001B6822F001025A617B68202283F83E20A9
:102ADC007B681B6B012B23D17B6800221A637B68FC
:102AEC001B68DA687B681B6822F01002DA607B686E
:102AFC001B681B6803F01003102B0AD10023FB602A
:102B0C007B681B681B68FB607B681B685B68FB60F1
:102B1C00FB687B689B8D19467868FFF7B2FE02E074
:102B2C007868FFF79CFE002302E0002300E00223FC
:102B3C0018461837BD4680BD80B584B000AF7860AC
:102B4C007B681B681B6923F440517B68DA687B68DF
:102B5C001B680A431A617B689A687B681B691A4375
:102B6C007B685B691343BB607B681B68DB6823F481
:102B7C00B05323F00C037A681268B9680B43D36026
:102B8C007B681B685B6923F440717B689A697B687E
:102B9C001B680A435A617B681B682C4A934203D119
:102BAC00FFF728FCF86002E0FFF710FCF860FA6809
:102BBC0013469B0013449A001A447B685B689B0085
:102BCC00B2FBF3F3224AA2FB03235B091901FA6857
:102BDC0013469B0013449A001A447B685B689B0065
:102BEC00B2FBF3F21A4BA3FB02035B09642000FB5C
:102BFC0003F3D31A1B013233154AA2FB03235B09DF
:102C0C0003F0F0031944FA6813469B0013449A002E
:102C1C001A447B685B689B00B2FBF3F20C4BA3FB82
:102C2C0002035B09642000FB03F3D31A1B0132334C
:102C3C00074AA2FB03235B0903F00F027B681B68A6
:102C4C000A449A6000BF1037BD4680BD0038014071
:102C5C001F85EB5170B500250C4E0D4CA41BA41018
:102C6C00A54209D100F022F800250A4E0A4CA41BFB
:102C7C00A410A54205D170BD56F8253098470135F2
:102C8C00EEE756F8253098470135F2E7FC2C0008A2
:102C9C00FC2C0008FC2C0008002D00080346024404
:102CAC00934200D1704703F8011BF9E7F8B500BF58
:102CBC00F8BC08BC9E467047F8B500BFF8BC08BC11
:042CCC009E46704769
:102CD00002030405060708090A0B0C0D0E0F10105D
:102CE00001020000000000000000000001020304D7
:0C2CF000060708090000000001020304B0
:042CFC00310100089A
:042D00000D010008B9
:0C2D04000024F40010000000010000009A
:040000050800081DCA
:00000001FF
