:020000040800F2
:1000000000500020050B0008810900088D09000838
:1000100093090008990900089F09000800000000E2
:10002000000000000000000000000000A50900081A
:10003000B109000800000000BD090008C909000856
:100040004D0B00084D0B00084D0B00084D0B000830
:100050004D0B00084D0B00084D0B00084D0B000820
:100060004D0B00084D0B00084D0B00084D0B000810
:100070004D0B00084D0B00084D0B00084D0B000800
:100080004D0B00084D0B00084D0B00084D0B0008F0
:10009000F90900080D0A00084D0B00084D0B000877
:1000A0004D0B00084D0B00084D0B00084D0B0008D0
:1000B0004D0B00084D0B00084D0B00084D0B0008C0
:1000C0004D0B00084D0B00084D0B00084D0B0008B0
:1000D0004D0B00084D0B00084D0B00084D0B0008A0
:1000E0004D0B00084D0B00084D0B000800000000F0
:1000F0000000000000000000000000000000000000
:0C01000000000000000000005FF808F1A3
:10010C0010B5054C237833B9044B13B10448AFF345
:10011C0000800123237010BD180000200000000097
:10012C00141E000808B5034B1BB103490348AFF379
:10013C00008008BD000000001C000020141E0008F8
:10014C0080B582B000AF0C23FB7106E0FB7918463A
:10015C0000F00AF8FB790133FB71FB797E2BF5D9A2
:10016C0000BF0837BD4680BD80B483B000AF0346E6
:10017C00FB7100BF1E4BDB6803F00103012BF9D0B0
:10018C001B4B1B69DB1103F00103012B05D1184B31
:10019C00184A5A60164B184A5A60154B1B69144A78
:1001AC0043F002031361FB7903F50033104A9B0201
:1001BC0053610F4B1B690E4A43F04003136100BFA0
:1001CC000B4BDB6803F00103012BF9D0084BDB6808
:1001DC00074A43F02003D360054B1B69044A23F004
:1001EC000203136100BF0C37BD4680BC704700BFD3
:1001FC000020024023016745AB89EFCD80B487B066
:10020C0000AFF860B9601346FB7100BF264BDB688A
:10021C0003F00103012BF9D0234B1B69DB1103F015
:10022C000103012B05D1204B204A5A601E4B204A5A
:10023C005A600023FB752DE01B4B1B691A4A43F0D7
:10024C0001031361FB7D5B00BA681344B3F9003002
:10025C00BB82FB7D5B00BA681A44FB68B2F90020D4
:10026C001A80FB680233FB6000BF0F4BDB6803F0A6
:10027C000103012BF9D00C4BDB680B4A43F0200334
:10028C00D360094B1B69084A23F001031361FB7D02
:10029C000133FB75FA7DFB799A42CDD300BF1C3735
:1002AC00BD4680BC704700BF00200240230167455B
:1002BC00AB89EFCD80B483B000AF03463960FB71DE
:1002CC0097F90730002B0ADB3B68DAB20C4997F937
:1002DC0007301201D2B20B4483F800230AE03B68CA
:1002EC00DAB20849FB7903F00F03043B1201D2B2D6
:1002FC000B441A7600BF0C37BD4680BC704700BF5C
:10030C0000E100E000ED00E080B582B000AF786065
:10031C007B68013BB3F1807F01D301230FE00A4AD4
:10032C007B68013B53600F214FF0FF30FFF7C2FF9A
:10033C00054B00229A60044B07221A6000231846D2
:10034C000837BD4680BD00BF10E000E080B582B02C
:10035C0000AF78600D4B01221A8002210C4801F08D
:10036C0015FD0C4B1B781A460B4B13440B4A002102
:10037C00786800F037FF074B1B780133DAB2054B76
:10038C001A7000BF0837BD4680BD00BF9E0000201C
:10039C00000801409C00002038000020B40100201F
:1003AC0080B582B000AF0123FB7100F0CBFB3A4B60
:1003BC0001221A61384B00229A60374B0022DA6016
:1003CC00354B40F203121A60344B01221A61334B45
:1003DC0000229A60314B0022DA60304B30221A60D6
:1003EC0000F0CCF800F078F82D4800F0DDFD02218B
:1003FC002B4801F008F800F013FB2A4B1B682A4A23
:10040C00A2FB03235B091846FFF77EFF00F0E8F818
:10041C00264B01221A702DE0254B1B88012B29D16C
:10042C00234B00221A8000F0EDF8224B1B78013B85
:10043C00214AD35C0A2B15D11E4B00221A70FB7972
:10044C00012B03D1FFF77CFE0023FB711A4800F04F
:10045C00EAF900F0F5F8194B194A1049104800F068
:10046C00E7FD05E0154B164A0C490D4800F0E0FD80
:10047C0000F0B6F8134B1B78002BCDD0124B134A5F
:10048C001A6000F075FB124B1B68124A1360114B7B
:10049C001B689847EEE700BFB40100209C010020C8
:1004AC00700100200C0000201F85EB51350000204E
:1004BC009E0000209C0000203800002098010020A5
:1004CC00040000203400002008ED00E000000108CA
:1004DC0004000108A000002080B58AB000AF254BB5
:1004EC00254A1A60234B10225A60224B00229A6034
:1004FC00204B0022DA601F4B4FF480321A611D4BE7
:10050C0000225A611B4B00221A761A4B00225A7693
:10051C00184B00229A76174B0022DA76154B0022E4
:10052C001A77144B00225A77124800F079FB0346D5
:10053C00002B01D000F09CF801233B620A237B6165
:10054C0000233B6100233B6000237B600023BB60E6
:10055C000023FB600023BB610123FB6100237B6252
:10056C003B461946034800F056FC00BF2837BD46F1
:10057C0080BD00BF700100200064004080B586B0D3
:10058C0000AF07F1080300221A605A609A60DA6023
:10059C00114B9B69104A43F0040393610E4B9B690A
:1005AC0003F004037B607B68002206210B4801F0FA
:1005BC00D5FB0623BB600123FB6000233B610223B8
:1005CC007B6107F108031946044801F06DFA00BF7E
:1005DC001837BD4680BD00BF001002400008014026
:1005EC0080B400AF064B00221A60054B00229A60C3
:1005FC00034B07221A6000BFBD4680BC704700BF8A
:10060C0010E000E080B400AF044B00221A60034BF2
:10061C0000229A6000BFBD4680BC704710E000E02D
:10062C0080B500AF0421044801F0B0FB034B01225C
:10063C001A7000BF80BD00BF0008014034000020CC
:10064C0080B483B000AF0023FB7106E0FB79074A4E
:10065C000021D154FB790133FB71FB79632BF5D964
:10066C0000BF0C37BD4680BC704700BF380000206F
:10067C0080B400AF72B6FEE780B485B000AF03461D
:10068C00FB71FB792F2B06D9FB79392B03D8FB791E
:10069C00303BFB7302E0FB79373BFB73FB7B18466B
:1006AC001437BD4680BC704780B586B000AF78600B
:1006BC000023BB757B6801331B781846FFF7DCFF02
:1006CC0003467B757B6802331B781846FFF7D4FF13
:1006DC0003463B757B7D1B015AB297F914301343CB
:1006EC005BB2FB747B6803331B781846FFF7C4FFBF
:1006FC000346BB747B6804331B781846FFF7BCFFBA
:10070C0003467B747B6805331B781846FFF7B4FFF0
:10071C0003463B747B6806331B781846FFF7ACFF27
:10072C000346FB73394B1B681B0C1B04374A1360C5
:10073C00FA7B364B1B6813433A7C120113437A7CC9
:10074C0012021343BA7C12031343304A1360002382
:10075C00FB7547E0FB7D9B0009337A6813441B78DB
:10076C001846FFF789FF0346BB74FB7D9B000A33D9
:10077C007A6813441B781846FFF77EFF03467B7498
:10078C00FB7D9B000B337A6813441B781846FFF7EC
:10079C0073FF03463B74FB7D9B000C337A68134458
:1007AC001B781846FFF768FF0346FB73FB7B1B02A5
:1007BC001AB23B7C1B031BB213431AB27B7C1BB2D9
:1007CC0013431AB2BB7C1B011BB213431AB2BB7D81
:1007DC0091B20F4A22F81310BB7D0133BB75FB7D20
:1007EC000133FB75FB7C5B08DBB2FA7D9A42B1D31B
:1007FC00064B1868FB7C5B08DBB21A460449FFF712
:10080C00FDFC00BF1837BD4680BD00BF08000020AE
:10081C00A400002080B483B000AF786000BF0C3718
:10082C00BD4680BC704780B582B000AF78607B68F5
:10083C0008331B78302B02D0342B04D007E07868B7
:10084C00FFF732FF03E07868FFF7E4FF00BF00BF5B
:10085C000837BD4680BD000080B485B000AF154B95
:10086C009B69144A43F001039361124B9B6903F09B
:10087C000103BB60BB680F4BDB690E4A43F080532E
:10088C00D3610C4BDB6903F080537B607B680A4BB4
:10089C005B68FB60FB6823F0E063FB60FB6843F084
:1008AC000073FB60044AFB68536000BF1437BD46FD
:1008BC0080BC7047001002400000014080B588B039
:1008CC0000AF786007F1100300221A605A609A603A
:1008DC00DA607B681B68244A934241D1234BDB6965
:1008EC00224A43F00073D361204BDB6903F00073A1
:1008FC00FB60FB681D4B9B691C4A43F0040393612E
:10090C001A4B9B6903F00403BB60BB684FF4006394
:10091C003B6100237B610023BB6107F11003194687
:10092C00134801F0C1F84FF480533B6102237B6103
:10093C000323FB6107F1100319460D4801F0B4F8CD
:10094C0000220021142001F078F8142001F091F815
:10095C0000220021152001F070F8152001F089F813
:10096C0000BF2037BD4680BD00640040001002402F
:10097C000008014080B400AF00BFBD4680BC70478A
:10098C0080B400AFFEE780B400AFFEE780B400AFE8
:10099C00FEE780B400AFFEE780B400AF00BFBD46F9
:1009AC0080BC704780B400AF00BFBD4680BC7047B0
:1009BC0080B400AF00BFBD4680BC704780B500AFAF
:1009CC00084B1B680133074A1360064B1A68064B29
:1009DC001B689A4204D1FFF723FE024B00221A60D7
:1009EC0000BF80BD6C0100200000002080B500AF6E
:1009FC00024800F02DFD00BF80BD00BF700100203B
:100A0C0080B500AF024800F023FD00BF80BD00BFE1
:100A1C007001002080B400AF00BFBD4680BC7047A1
:100A2C0080B485B000AF0023FB600023BB600023C3
:100A3C007B602C4B5B6803F00C03FB60FB68042BA6
:100A4C0007D0082B09D0002B33D1274B274A1A602B
:100A5C0033E0254B254A1A602FE0224B5B6803F4E8
:100A6C007013BB601F4B5B6803F480337B60BB6807
:100A7C009B0C0233BB607B68002B06D1BB681C4A05
:100A8C0002FB03F3184A136017E0164B5B6803F480
:100A9C000033002B06D0BB68154A02FB03F3124A45
:100AAC0013600AE0BB68114A02FB03F30E4A1360A1
:100ABC0003E00D4B0D4A1A6000BF0A4B5B681B0923
:100ACC0003F00F030B4AD35CFB60074B1A68FB68FF
:100ADC0022FA03F3044A136000BF1437BD4680BCEE
:100AEC00704700BF001002400C00002000127A007A
:100AFC0000093D002C1E00080C480D490D4A00232E
:100B0C0002E0D458C4500433C4188C42F9D30A4AB6
:100B1C000A4C002301E013600432A242FBD3FFF71E
:100B2C0079FF01F04DF9FFF73BFC70470000002006
:100B3C0018000020441E000818000020D4010020DA
:100B4C00FEE7000080B500AF084B1B68074A43F076
:100B5C0010031360032000F065FF002000F026F85E
:100B6C00FFF77AFE0023184680BD00BF002002402C
:100B7C0080B500AF094B4FF0FF32DA60074B002213
:100B8C001A61064B4FF0FF32DA60044B0022DA6038
:100B9C0000F006F80023184680BD00BF001002408C
:100BAC0080B400AF00BFBD4680BC704780B582B03A
:100BBC0000AF7860124B1A68124B1B7819464FF431
:100BCC007A73B3FBF1F3B2FBF3F3184600F05FFF5B
:100BDC000346002B01D001230EE07B680F2B0AD8B3
:100BEC00002279684FF0FF3000F027FF064A7B683F
:100BFC001360002300E0012318460837BD4680BD72
:100C0C000C000020140000201000002080B400AF65
:100C1C00024B1B681846BD4680BC7047D0010020B3
:100C2C0080B584B000AF78607B68002B01D10123C4
:100C3C00EDE07B6893F82030DBB2002B02D17868B2
:100C4C00FFF73CFE7B681B681A687B681B6842F0E8
:100C5C0001021A60FFF7DAFFF86012E0FFF7D6FF27
:100C6C000246FB68D31A0A2B0BD97B685B6A43F4E8
:100C7C0000327B685A627B68052283F820200123AE
:100C8C00C5E07B681B685B6803F00103002BE5D0B3
:100C9C007B681B681A687B681B6822F002021A606A
:100CAC00FFF7B4FFF86012E0FFF7B0FF0246FB68F5
:100CBC00D31A0A2B0BD97B685B6A43F400327B682E
:100CCC005A627B68052283F8202001239FE07B6811
:100CDC001B685B6803F00203002BE5D17B681B7E6D
:100CEC00012B08D17B681B681A687B681B6842F073
:100CFC0080021A6007E07B681B681A687B681B68B7
:100D0C0022F080021A607B685B7E012B08D17B6825
:100D1C001B681A687B681B6842F040021A6007E087
:100D2C007B681B681A687B681B6822F040021A609B
:100D3C007B689B7E012B08D17B681B681A687B68DB
:100D4C001B6842F020021A6007E07B681B681A6877
:100D5C007B681B6822F020021A607B68DB7E012B0B
:100D6C0008D17B681B681A687B681B6822F010022C
:100D7C001A6007E07B681B681A687B681B6842F086
:100D8C0010021A607B681B7F012B08D17B681B68E3
:100D9C001A687B681B6842F008021A6007E07B68DF
:100DAC001B681A687B681B6822F008021A607B6853
:100DBC005B7F012B08D17B681B681A687B681B68FA
:100DCC0042F004021A6007E07B681B681A687B68B3
:100DDC001B6822F004021A607B689A687B68DB68E7
:100DEC001A437B681B691A437B685B6942EA0301FF
:100DFC007B685B685A1E7B681B680A43DA617B68F8
:100E0C0000225A627B68012283F8202000231846B6
:100E1C001037BD4680BD80B487B000AF78603960B4
:100E2C007B681B687B617B6893F82030FB74FB7CD0
:100E3C00012B03D0FB7C022B40F0AA807B69D3F8FA
:100E4C00003243F001027B69C3F800223B685B6906
:100E5C0003F01F03012202FA03F3FB607B69D3F852
:100E6C001C22FB68DB431A407B69C3F81C223B68DD
:100E7C00DB69002B23D17B69D3F80C22FB68DB43A5
:100E8C001A407B69C3F80C223B68DB6819043B6889
:100E9C005B689BB23A68526919437B69483243F8E4
:100EAC0032103B689B6819043B681B689AB23B681C
:100EBC005B690A4379694833DB000B445A603B6831
:100ECC00DB69012B22D17B69D3F80C22FB681A4316
:100EDC007B69C3F80C223B681B6819043B685B6890
:100EEC009BB23A68526919437B69483243F8321015
:100EFC003B689B6819043B68DB689AB23B685B698A
:100F0C000A4379694833DB000B445A603B689B69A0
:100F1C00002B09D17B69D3F80422FB68DB431A4010
:100F2C007B69C3F8042207E07B69D3F80422FB68D1
:100F3C001A437B69C3F804223B681B69002B09D157
:100F4C007B69D3F81422FB68DB431A407B69C3F836
:100F5C00142207E07B69D3F81422FB681A437B69DF
:100F6C00C3F814223B681B6A012B07D17B69D3F8A9
:100F7C001C22FB681A437B69C3F81C227B69D3F8DB
:100F8C00003223F001027B69C3F80022002306E043
:100F9C007B685B6A43F480227B685A6201231846A3
:100FAC001C37BD4680BC704780B584B000AF7860FC
:100FBC007B6893F82030DBB2012B2ED17B680222A8
:100FCC0083F820207B681B681A687B681B6822F0FA
:100FDC0001021A60FFF71AFEF86012E0FFF716FE26
:100FEC000246FB68D31A0A2B0BD97B685B6A43F465
:100FFC0000327B685A627B68052283F8202001232B
:10100C0012E07B681B685B6803F00103002BE5D1E1
:10101C007B6800225A62002306E07B685B6A43F41B
:10102C0000227B685A62012318461037BD4680BDEA
:10103C0080B489B000AFF860B9607A603B60FB683F
:10104C0093F82030FB77FB681B689B68BB61FB7FC8
:10105C00012B03D0FB7F022B40F0B880BB6903F05F
:10106C008063002B0AD1BB6903F00063002B05D110
:10107C00BB6903F08053002B00F0A080BB691B0EF2
:10108C0003F003037B617B69022B07D9FB685B6A66
:10109C0043F40002FB685A6201239EE001227B6943
:1010AC009A403B681A60BB689B68002B0DD1BB68EB
:1010BC001B685A05BB68DB68F96809681A437B69C9
:1010CC0018331B010B441A600FE0BB685B68DA0035
:1010DC00BB689B681A43BB68DB68F96809681A43EC
:1010EC007B6918331B010B441A60FB681968BB68D9
:1010FC001A697B6918331B010B4404331A60BB68F3
:10110C001B7D012B11D1FB681A687B6918331B01FD
:10111C00134404331B68FA68116843F480727B69CA
:10112C0018331B010B4404331A607B6807331B789C
:10113C001A067B6806331B781B041A437B6805333D
:10114C001B781B0213437A68043212781046FA6833
:10115C00116843EA00027B691B010B4403F5C6735B
:10116C001A607B6803331B781A067B6802331B7882
:10117C001B041A437B6801331B781B0213437A68E8
:10118C0012781046FA68116843EA00027B691B0169
:10119C000B4403F5C4731A60FB681A687B69183337
:1011AC001B0113441B68FA68116843F001027B6948
:1011BC0018331B010B441A6000230EE0FB685B6ABA
:1011CC0043F40012FB685A62012306E0FB685B6A79
:1011DC0043F48022FB685A62012318462437BD462B
:1011EC0080BC704780B487B000AFF860B9607A609B
:1011FC003B60FB6893F82030FB75FB7D012B03D023
:10120C00FB7D022B40F0F380BB68002B0ED1FB68FA
:10121C001B68DB6803F00303002B16D1FB685B6AC9
:10122C0043F40012FB685A620123E7E0FB681B6879
:10123C001B6903F00303002B07D1FB685B6A43F4C3
:10124C000012FB685A620123D8E0FB681A68BB687D
:10125C001B331B0113441B6803F004027B689A6068
:10126C007B689B68002B0CD1FB681A68BB681B332E
:10127C001B0113441B685B0DC3F30A027B681A60E5
:10128C000BE0FB681A68BB681B331B0113441B681B
:10129C00DB0823F060427B685A60FB681A68BB6805
:1012AC001B331B0113441B6803F002027B68DA60DA
:1012BC00FB681A68BB681B331B01134404331B689F
:1012CC0003F00F027B681A61FB681A68BB681B335A
:1012DC001B01134404331B681B0ADAB27B689A6146
:1012EC00FB681A68BB681B331B01134404331B686F
:1012FC001B0C9AB27B685A61FB681A68BB681B01AD
:10130C00134403F5DC731B68DAB23B681A70FB6894
:10131C001A68BB681B01134403F5DC731B681A0ABB
:10132C003B680133D2B21A70FB681A68BB681B01A8
:10133C00134403F5DC731B681A0C3B680233D2B2FE
:10134C001A70FB681A68BB681B01134403F5DC7345
:10135C001B681A0E3B680333D2B21A70FB681A680A
:10136C00BB681B01134403F5DE731A683B68043336
:10137C00D2B21A70FB681A68BB681B01134403F5E0
:10138C00DE731B681A0A3B680533D2B21A70FB680D
:10139C001A68BB681B01134403F5DE731B681A0C37
:1013AC003B680633D2B21A70FB681A68BB681B0123
:1013BC00134403F5DE731B681A0E3B680733D2B275
:1013CC001A70BB68002B08D1FB681B68DA68FB68D5
:1013DC001B6842F02002DA6007E0FB681B681A69A0
:1013EC00FB681B6842F020021A61002306E0FB68D0
:1013FC005B6A43F48022FB685A62012318461C374F
:10140C00BD4680BC704780B485B000AF7860396051
:10141C007B6893F82030FB73FB7B012B02D0FB7BAA
:10142C00022B09D17B681B6859697B681B683A6879
:10143C000A435A61002306E07B685B6A43F480220E
:10144C007B685A62012318461437BD4680BC70472E
:10145C0080B58AB000AF786000237B627B681B6824
:10146C005B693B627B681B685B68FB617B681B6824
:10147C009B68BB617B681B68DB687B617B681B6856
:10148C001B693B617B681B689B69FB603B6A03F0D3
:10149C000103002B7CD0BB6903F00103002B23D08C
:1014AC007B681B6801229A60BB6903F00203002B66
:1014BC0003D0786800F07DF916E0BB6903F00403F3
:1014CC00002B04D07B6A43F400637B620CE0BB69A5
:1014DC0003F00803002B04D07B6A43F480537B6237
:1014EC0002E0786800F080F9BB6903F48073002B8C
:1014FC0024D07B681B684FF480729A60BB6903F43C
:10150C000073002B03D0786800F05CF916E0BB691F
:10151C0003F48063002B04D07B6A43F400537B629A
:10152C000CE0BB6903F40063002B04D07B6A43F42A
:10153C0080437B6202E0786800F05FF9BB6903F4DA
:10154C008033002B24D07B681B684FF480329A6068
:10155C00BB6903F40033002B03D0786800F03BF92F
:10156C0016E0BB6903F48023002B04D07B6A43F4A0
:10157C0000437B620CE0BB6903F40023002B04D016
:10158C007B6A43F480337B6202E0786800F03EF9BA
:10159C003B6A03F00803002B0CD07B6903F01003AB
:1015AC00002B07D07B6A43F400737B627B681B685B
:1015BC001022DA603B6A03F00403002B0BD07B692A
:1015CC0003F00803002B06D07B681B680822DA6046
:1015DC00786800F024F93B6A03F00203002B09D071
:1015EC007B681B68DB6803F00303002B02D0786870
:1015FC00FEF7ACFE3B6A03F04003002B0CD03B69BA
:10160C0003F01003002B07D07B6A43F480637B62EA
:10161C007B681B6810221A613B6A03F02003002BC5
:10162C000BD03B6903F00803002B06D07B681B68CA
:10163C0008221A61786800F004F93B6A03F0100381
:10164C00002B09D07B681B681B6903F00303002B7C
:10165C0002D0786800F0ECF83B6A03F40033002BFE
:10166C000BD0FB6903F01003002B06D07B681B68C2
:10167C0010225A60786800F0EDF83B6A03F480336E
:10168C00002B0BD0FB6903F00803002B06D07B6802
:10169C001B6808225A60786800F0E5F83B6A03F48E
:1016AC000043002B75D0FB6903F00403002B6CD0B6
:1016BC003B6A03F48073002B08D0FB6803F0010332
:1016CC00002B03D07B6A43F001037B623B6A03F47B
:1016DC000073002B08D0FB6803F00203002B03D02F
:1016EC007B6A43F002037B623B6A03F48063002B4A
:1016FC0008D0FB6803F00403002B03D07B6A43F093
:10170C0004037B623B6A03F40063002B3DD0FB684F
:10171C0003F07003002B38D0FB6803F07003302B00
:10172C0017D0302B04D8102B09D0202B0CD024E050
:10173C00502B18D0602B1BD0402B0FD01DE07B6A98
:10174C0043F008037B6218E07B6A43F010037B6272
:10175C0013E07B6A43F020037B620EE07B6A43F06C
:10176C0040037B6209E07B6A43F080037B6204E008
:10177C007B6A43F480737B6200BF7B681B689A6949
:10178C007B681B6822F070029A617B681B680422DC
:10179C005A607B6A002B08D07B685A6A7B6A1A43B2
:1017AC007B685A62786800F067F800BF2837BD463E
:1017BC0080BD80B483B000AF786000BF0C37BD46ED
:1017CC0080BC704780B483B000AF786000BF0C372A
:1017DC00BD4680BC704780B483B000AF786000BF5A
:1017EC000C37BD4680BC704780B483B000AF7860C6
:1017FC0000BF0C37BD4680BC704780B483B000AFCF
:10180C00786000BF0C37BD4680BC704780B483B095
:10181C0000AF786000BF0C37BD4680BC704780B409
:10182C0083B000AF786000BF0C37BD4680BC7047FA
:10183C0080B483B000AF786000BF0C37BD4680BC6D
:10184C00704780B483B000AF786000BF0C37BD46E2
:10185C0080BC704780B483B000AF786000BF0C3799
:10186C00BD4680BC704780B483B000AF786000BFC9
:10187C000C37BD4680BC704780B483B000AF786035
:10188C0000BF0C37BD4680BC7047000080B485B0EB
:10189C0000AF78607B6803F00703FB600C4BDB68E0
:1018AC00BB60BA684FF6FF031340BB60FB681A02BB
:1018BC00BB68134343F0BF6343F40033BB60044A7B
:1018CC00BB68D36000BF1437BD4680BC704700BFF7
:1018DC0000ED00E080B400AF044BDB681B0A03F0A2
:1018EC0007031846BD4680BC704700BF00ED00E002
:1018FC0080B483B000AF0346FB7197F90730002B1F
:10190C000BDBFB7903F01F02064997F907305B09E3
:10191C00012000FA02F241F8232000BF0C37BD462B
:10192C0080BC704700E100E080B483B000AF034698
:10193C003960FB7197F90730002B0ADB3B68DAB290
:10194C000C4997F907301201D2B20B4483F80023EB
:10195C000AE03B68DAB20849FB7903F00F03043B59
:10196C001201D2B20B441A7600BF0C37BD4680BCB4
:10197C00704700BF00E100E000ED00E080B489B0EA
:10198C0000AFF860B9607A60FB6803F00703FB6195
:10199C00FB69C3F10703042B28BF0423BB61FB695C
:1019AC000433062B02D9FB69033B00E000237B6167
:1019BC004FF0FF32BB6902FA03F3DA43BB681A40FB
:1019CC007B699A404FF0FF317B6901FA03F3D943ED
:1019DC007B680B40134318462437BD4680BC7047C8
:1019EC0080B582B000AF78607B68013BB3F1807F3B
:1019FC0001D301230FE00A4A7B68013B53600F219E
:101A0C004FF0FF30FFF790FF054B00229A60044B1C
:101A1C0007221A60002318460837BD4680BD00BF58
:101A2C0010E000E080B582B000AF78607868FFF716
:101A3C002DFF00BF0837BD4680BD80B586B000AF16
:101A4C000346B9607A60FB7300237B61FFF742FFAA
:101A5C0078617A68B9687869FFF790FF024697F960
:101A6C000F3011461846FFF75FFF00BF1837BD4611
:101A7C0080BD80B582B000AF0346FB7197F907308B
:101A8C001846FFF735FF00BF0837BD4680BD80B54F
:101A9C0082B000AF78607868FFF7A2FF0346184663
:101AAC000837BD4680BD000080B48BB000AF7860B5
:101ABC00396000237B6200233B6227E101227B6AB1
:101ACC0002FA03F3FB613B681B68FA691340BB61C4
:101ADC00BA69FB699A4240F016813B685B68122B2D
:101AEC0034D0122B0DD8022B2BD0022B04D8002B68
:101AFC0031D0012B1CD048E0032B43D0112B1BD031
:101B0C0043E0894A934226D0874A934206D8874AB3
:101B1C00934220D0864A93421DD036E0854A9342A8
:101B2C0019D0854A934216D0844A934213D02CE0A4
:101B3C003B68DB683B6228E03B68DB6804333B6254
:101B4C0023E03B68DB6808333B621EE03B68DB68E4
:101B5C000C333B6219E03B689B68002B02D10423D9
:101B6C003B6212E03B689B68012B05D108233B626A
:101B7C007B68FA691A6108E008233B627B68FA69A2
:101B8C005A6102E000233B6200BFBB69FF2B01D806
:101B9C007B6801E07B6804337B61BB69FF2B02D857
:101BAC007B6A9B0002E07B6A083B9B003B617B6984
:101BBC001A680F213B6901FA03F3DB431A40396AB7
:101BCC003B6901FA03F31A437B691A603B685B6853
:101BDC0003F08053002B00F09680594B9B69584AB8
:101BEC0043F001039361564B9B6903F00103BB6007
:101BFC00BB68544A7B6A9B08023352F82330FB6063
:101C0C007B6A03F003039B000F2202FA03F3DB430E
:101C1C00FA681340FB607B684B4A934213D07B6895
:101C2C004A4A93420DD07B68494A934207D07B685D
:101C3C00484A934201D1032306E0042304E0022323
:101C4C0002E0012300E000237A6A02F00302920012
:101C5C009340FA681343FB603A497B6A9B08023352
:101C6C00FA6841F823203B685B6803F48033002B4F
:101C7C0006D0394B1A683849BB6913430B6006E030
:101C8C00354B1A68BB69DB43334913400B603B6827
:101C9C005B6803F40033002B06D02F4B5A682E4997
:101CAC00BB6913434B6006E02B4B5A68BB69DB43A3
:101CBC00294913404B603B685B6803F48013002B8D
:101CCC0006D0254B9A682449BB6913438B6006E008
:101CDC00214B9A68BB69DB431F4913408B603B68FF
:101CEC005B6803F40013002B06D01B4BDA681A490F
:101CFC00BB691343CB6006E0174BDA68BB69DB4367
:101D0C0015491340CB607B6A01337B623B681A68D0
:101D1C007B6A22FA03F3002B7FF4D0AE00BF2C3782
:101D2C00BD4680BC704700BF0000211000001110A0
:101D3C0000001210000031100000321000002210C0
:101D4C00001002400000014000080140000C01405E
:101D5C0000100140001401400004014080B483B025
:101D6C0000AF78600B467B8013467B707B78002B32
:101D7C0003D07A887B681A6103E07B881A047B683D
:101D8C001A6100BF0C37BD4680BC704780B485B06B
:101D9C0000AF78600B467B807B68DB68FB607A88E1
:101DAC00FB6813401A04FB68D9437B880B401A4329
:101DBC007B681A6100BF1437BD4680BC70470000B9
:101DCC0070B500250C4E0D4CA41BA410A54209D1D6
:101DDC0000F01AF800250A4E0A4CA41BA410A542C8
:101DEC0005D170BD56F8253098470135EEE756F809
:101DFC00253098470135F2E73C1E00083C1E0008D0
:101E0C003C1E0008401E0008F8B500BFF8BC08BC1A
:101E1C009E467047F8B500BFF8BC08BC9E4670479C
:101E2C00000000000000000001020304060708097E
:041E3C003101000868
:041E40000D01000888
:101E4400B80B000003000000000001080024F400A7
:081E5400100000000100000075
:0400000508000B05DF
:00000001FF
