:020000040800F2
:1080000000500020898D0008F18C0008FD8C0008CC
:10801000038D0008098D00080F8D00080000000086
:10802000000000000000000000000000158D0008A6
:10803000218D0008000000002D8D0008398D0008FA
:10804000D18D0008D18D0008D18D0008D18D000898
:10805000D18D0008D18D0008D18D0008D18D000888
:10806000D18D0008D18D0008D18D0008D18D000878
:10807000D18D0008D18D0008D18D0008D18D000868
:10808000D18D0008D18D0008D18D0008D18D000858
:10809000458D0008598D0008D18D0008D18D00084C
:1080A000D18D0008D18D0008D18D0008D18D000838
:1080B000D18D0008D18D0008D18D0008D18D000828
:1080C000D18D0008D18D0008D18D0008D18D000818
:1080D000D18D0008D18D0008D18D0008D18D000808
:1080E0006D8D0008D18D0008D18D000800000000C2
:1080F0000000000000000000000000000000000080
:0C81000000000000000000005FF808F123
:10810C0010B5054C237833B9044B13B10448AFF3C5
:10811C0000800123237010BD0C0000200000000023
:10812C007C9F000808B5034B1BB103490348AFF310
:10813C00008008BD00000000100000207C9F00089B
:10814C0080B500AF02220821002000F015FA0222AF
:10815C000921002000F010FA02220F21012000F06A
:10816C000BFA02220E21012000F006FA02220D2148
:10817C00012000F001FA02220C21012000F0FCF990
:10818C00282000F09FFB00F07FF9012000F09AFB03
:10819C0000F081F9012000F095FB00F08AF9032032
:1081AC0000F090FB00F08CF9012000F08BFB00BF7D
:1081BC0080BD80B586B000AF0346FB710023FB7514
:1081CC00FB79382B2AD0FB79282B27D0FB790C2B69
:1081DC0024D0FB79082B21D0FB790E2B1ED0FB79F8
:1081EC000A2B1BD0FB790F2B18D0FB79102B15D039
:1081FC00FB79142B12D0FB79182B0FD0FB791C2B8D
:10820C000CD0FB79802B09D0FB79C02B06D0FB79E5
:10821C00012B03D0FB79062B40F092800022092120
:10822C00002000F097FA012000F04CFB00220821FE
:10823C00002000F08FFA012000F044FBFB79DB09F1
:10824C00BB75FB799B09DBB203F001037B75FB79F2
:10825C005B09DBB203F001033B75FB791B09DBB255
:10826C0003F00103FB7401220821002000F072FAD4
:10827C00012000F027FBBB7D1A460C21012000F0E9
:10828C0069FA7B7D1A460D21012000F063FA3B7DD3
:10829C001A460E21012000F05DFAFB7C1A460F21D4
:1082AC00012000F057FA012000F00CFB00220821FD
:1082BC00002000F04FFA012000F004FBFB79DB08F2
:1082CC00DBB203F00103BB74FB799B08DBB203F058
:1082DC0001037B74FB795B08DBB203F001033B7495
:1082EC00FB7903F00103FB7301220821002000F04D
:1082FC0031FA012000F0E6FABB7C1A460C21012071
:10830C0000F028FA7B7C1A460D21012000F022FA9D
:10831C003B7C1A460E21012000F01CFAFB7B1A460E
:10832C000F21012000F016FA012000F0CBFA0022F8
:10833C000821002000F00EFA022000F0C3FA01E040
:10834C000123FB75FB7D18461837BD4680BD80B5F3
:10835C0084B000AF0346FB710023FB73012209219B
:10836C00002000F0F7F9012000F0ACFA00220821FF
:10837C00002000F0EFF9012000F0A4FAFB79DB09F2
:10838C00BB73FB799B09DBB203F001037B73FB79B5
:10839C005B09DBB203F001033B73FB791B09DBB216
:1083AC0003F00103FB7201220821002000F0D2F936
:1083BC00012000F087FABB7B1A460C21012000F04B
:1083CC00C9F97B7B1A460D21012000F0C3F93B7BD8
:1083DC001A460E21012000F0BDF9FB7A1A460F2136
:1083EC00012000F0B7F9012000F06CFA00220821FE
:1083FC00002000F0AFF9012000F064FAFB79DB08F3
:10840C00DBB203F00103BB73FB799B08DBB203F017
:10841C0001037B73FB795B08DBB203F001033B7355
:10842C00FB7903F00103FB7201220821002000F00C
:10843C0091F9012000F046FABB7B1A460C21012071
:10844C0000F088F97B7B1A460D21012000F082F99F
:10845C003B7B1A460E21012000F07CF9FB7A1A4670
:10846C000F21012000F076F9012000F02BFA0022F8
:10847C000821002000F06EF9022000F023FAFB7BAB
:10848C0018461037BD4680BD80B500AF2820FFF7D9
:10849C0090FE00BF80BD80B500AF0C20FFF789FEB9
:1084AC0000BF80BD80B500AFC020FFF782FE00BFCB
:1084BC0080BD80B500AF0120FFF77BFE00BF80BD03
:1084CC0080B500AF0620FFF774FE00BF80BD80B5FD
:1084DC0084B000AF78600023FB730023BB607B6823
:1084EC00002B16D00EE07A68BB6813441B78184634
:1084FC00FFF72DFFBB680133BB60BB68142B01D1A8
:10850C00FFF7D0FF7A68BB6813441B78002BEAD1C5
:10851C0001E00223FB73FB7B18461037BD4680BD80
:10852C0080B584B000AF03460A46FB711346BB719D
:10853C000023FB73BB79132B16D8FB79002B02D0CD
:10854C00012B07D00DE0BB79803BDBB21846FFF75F
:10855C0030FE0BE0BB79403BDBB21846FFF729FE3F
:10856C0004E00123FB7301E00123FB73FB7B184642
:10857C001037BD4680BD000080B485B000AF034607
:10858C00FB710B46BB7113467B710023FB73FB79AC
:10859C00022B00F2D080BB790F2B00F2CC807B79C0
:1085AC00002B2AD07B79042B27D07B79082B24D065
:1085BC007B79012B21D07B79052B1ED07B79092B64
:1085CC001BD07B790D2B18D07B79022B15D07B79A6
:1085DC00062B12D07B790A2B0FD07B790E2B0CD06B
:1085EC007B79032B09D07B79072B06D07B790B2B5E
:1085FC0003D07B790F2B40F09E80FB79012B3CD074
:10860C00022B72D0002B00D097E0BB79072B17D828
:10861C004D4B1B68BA7992000F2101FA02F2D2433A
:10862C001146494A0B401360474B1B687979BA795C
:10863C00920001FA02F21146434A0B43136074E0B4
:10864C00BB790F2B71D8404B5B68BA79083A920012
:10865C000F2101FA02F2D24311463B4A0B40536000
:10866C00394B5B687979BA79083A920001FA02F2CF
:10867C001146354A0B43536057E0BB79072B17D88B
:10868C00324B1B68BA7992000F2101FA02F2D243E5
:10869C0011462E4A0B4013602C4B1B687979BA7922
:1086AC00920001FA02F21146284A0B4313603EE095
:1086BC00BB790F2B3BD8254B5B68BA79083A9200F3
:1086CC000F2101FA02F2D2431146204A0B405360AB
:1086DC001E4B5B687979BA79083A920001FA02F27A
:1086EC0011461A4A0B43536021E0BB790C2B20D95D
:1086FC00BB790F2B1DD8164B5B68BA79083A9200E0
:10870C000F2101FA02F2D2431146114A0B40536079
:10871C000F4B5B687979BA79083A920001FA02F248
:10872C0011460B4A0B43536003E000BF05E000BF4A
:10873C0003E000BF01E00123FB73FB7B18461437F9
:10874C00BD4680BC704700BF00080140000C0140D2
:10875C000010014080B485B000AF0346FB710B469E
:10876C00BB7113467B710023FB73FB79022B7CD806
:10877C00BB790F2B79D87B79012B0ED07B79002B11
:10878C000BD07B79012B08D07B79002B05D07B7922
:10879C00012B02D07B79002B67D1FB79012B22D0E6
:1087AC00022B3ED0002B00D061E07B79012B05D051
:1087BC007B79012B02D07B79012B05D1BB7901226E
:1087CC009A402E4B1A614AE07B79002B05D07B79BD
:1087DC00002B02D07B79002B41D1BB7901229A402E
:1087EC00264B5A613BE07B79012B05D07B79012B21
:1087FC0002D07B79012B05D1BB7901229A40204B09
:10880C001A612EE07B79002B05D07B79002B02D0EE
:10881C007B79002B25D1BB7901229A40184B5A61E8
:10882C001FE07B79012B05D07B79012B02D07B7962
:10883C00012B05D1BB7901229A40124B1A6112E02F
:10884C007B79002B05D07B79002B02D07B79002B18
:10885C0009D1BB7901229A400A4B5A6103E000BF4F
:10886C0005E000BF03E000BF01E00123FB73FB7BCD
:10887C0018461437BD4680BC704700BF0008014045
:10888C00000C01400010014080B485B000AF78604E
:10889C000023FB737B68094A934207D87B68DBB2E1
:1088AC00002B03D1064A7B68936001E00123FB7324
:1088BC00FB7B18461437BD4680BC704700FEFF3F5B
:1088CC0000ED00E080B485B000AF78607B684FF4B9
:1088DC00FA7202FB03F3BB600023FB6003E000BFF2
:1088EC00FB680133FB60FA68BB689A42F7D3FB68FC
:1088FC0018461437BD4680BC7047000080B582B066
:10890C0000AF0123FB71254B01221A61234B00227E
:10891C009A60224B0022DA60204B4FF480721A606E
:10892C0000F052FA00F09AF800F046F81C4800F0FB
:10893C00B1FC02211A4800F002FEFFF701FCFFF720
:10894C00B8FD1848FFF7C3FD174B1B78002B05D05B
:10895C00642000F0B9FA00F0EFF8F5E7134B1B7840
:10896C00002BF1D0FB79002B0DD00023FB71FFF70E
:10897C00A0FD0F48FFF7ABFD00210120FFF7D0FD54
:10898C000C48FFF7A4FD084B1B78002BDCD06420AF
:10899C0000F09AFA00F0D0F8D6E700BF5C00002097
:1089AC0030000020949F000829000020280000209F
:1089BC009C9F0008B09F000880B58AB000AF254B83
:1089CC00254A1A60234B10225A60224B00229A60CF
:1089DC00204B0022DA601F4B4FF480321A611D4B82
:1089EC0000225A611B4B00221A761A4B00225A762F
:1089FC00184B00229A76174B0022DA76154B002280
:108A0C001A77144B00225A77124800F07FFA03466B
:108A1C00002B01D000F0D4F801233B620A237B61C8
:108A2C0000233B6100233B6000237B600023BB6081
:108A3C000023FB600023BB610123FB6100237B62ED
:108A4C003B461946034800F05CFB00BF2837BD4687
:108A5C0080BD00BF300000200064004080B586B0AF
:108A6C0000AF07F1080300221A605A609A60DA60BE
:108A7C002D4B9B692C4A43F0040393612A4B9B6951
:108A8C0003F004037B607B68274B9B69264A43F009
:108A9C0008039361244B9B6903F008033B603B681C
:108AAC00002240F20631214801F0F4F900224FF483
:108ABC0070411F4801F0EEF940F20633BB60012310
:108ACC00FB6000233B6102237B6107F1080319461D
:108ADC00164801F085F84FF40063BB60154BFB6042
:108AEC0000233B6107F108031946114801F078F89F
:108AFC004FF47043BB600123FB6000233B610223F6
:108B0C007B6107F108031946094801F069F8002256
:108B1C000021282001F02DF8282001F046F800BF94
:108B2C001837BD4680BD00BF001002400008014050
:108B3C00000C01400000211080B500AF4FF0006028
:108B4C00FFF7A2FE054B1B68054A136000F052F9B3
:108B5C00034B1B68984700BF80BD00BF0400000892
:108B6C002C00002080B582B000AF7860084B012249
:108B7C001A700221074801F0A5F9074B074A00219A
:108B8C00786800F0CBFB00BF0837BD4680BD00BF46
:108B9C002800002000080140580000205C00002044
:108BAC0080B483B000AF0346FB80044B01221A70E3
:108BBC0000BF0C37BD4680BC704700BF29000020A9
:108BCC0080B400AF72B6FEE780B485B000AF154B31
:108BDC009B69144A43F001039361124B9B6903F0A8
:108BEC000103BB60BB680F4BDB690E4A43F080533B
:108BFC00D3610C4BDB6903F080537B607B680A4BC1
:108C0C005B68FB60FB6823F0E063FB60FB6843F090
:108C1C000073FB60044AFB68536000BF1437BD4609
:108C2C0080BC7047001002400000014080B588B045
:108C3C0000AF786007F1100300221A605A609A6046
:108C4C00DA607B681B68244A934241D1234BDB6971
:108C5C00224A43F00073D361204BDB6903F00073AD
:108C6C00FB60FB681D4B9B691C4A43F0040393613A
:108C7C001A4B9B6903F00403BB60BB684FF40063A1
:108C8C003B6100237B610023BB6107F11003194694
:108C9C00134800F0A5FF4FF480533B6102237B6126
:108CAC000323FB6107F1100319460D4800F098FFF0
:108CBC0000220021142000F05CFF142000F075FF4E
:108CCC0000220021152000F054FF152000F06DFF4C
:108CDC0000BF2037BD4680BD00640040001002403C
:108CEC000008014080B400AF00BFBD4680BC704797
:108CFC0080B400AFFEE780B400AFFEE780B400AFF5
:108D0C00FEE780B400AFFEE780B400AF00BFBD4605
:108D1C0080BC704780B400AF00BFBD4680BC7047BC
:108D2C0080B400AF00BFBD4680BC704780B500AFBB
:108D3C0000F0AEF800BF80BD80B500AF024800F077
:108D4C0023FC00BF80BD00BF3000002080B500AF09
:108D5C00024800F019FC00BF80BD00BF30000020AD
:108D6C0080B500AF4FF4006001F0C6F800BF80BDC5
:108D7C0080B400AF00BFBD4680BC70470C480D49A5
:108D8C000D4A002302E0D458C4500433C4188C425A
:108D9C00F9D30A4A0A4C002301E013600432A242C0
:108DAC00FBD3FFF7E5FF01F0BFF8FFF7A7FD704716
:108DBC00000000200C000020CC9F00080C000020BC
:108DCC007C000020FEE7000080B500AF084B1B685C
:108DDC00074A43F010031360032000F0BFFE00208D
:108DEC0000F026F8FFF7F0FE0023184680BD00BF08
:108DFC000020024080B500AF094B4FF0FF32DA6023
:108E0C00074B00221A61064B4FF0FF32DA60044B1D
:108E1C000022DA6000F006F80023184680BD00BF7F
:108E2C000010024080B400AF00BFBD4680BC70474C
:108E3C0080B582B000AF7860124B1A68124B1B7869
:108E4C0019464FF47A73B3FBF1F3B2FBF3F3184604
:108E5C0000F0B9FE0346002B01D001230EE07B6825
:108E6C000F2B0AD8002279684FF0FF3000F081FEFA
:108E7C00064A7B681360002300E00123184608377C
:108E8C00BD4680BD0000002008000020040000202A
:108E9C0080B400AF054B1B781A46054B1B68134476
:108EAC00034A136000BFBD4680BC70470800002019
:108EBC007800002080B400AF024B1B681846BD46FA
:108ECC0080BC70477800002080B584B000AF78601B
:108EDC00FFF7F0FFB8607B68FB60FB68B3F1FF3F06
:108EEC0005D0094B1B781A46FB681344FB6000BF86
:108EFC00FFF7E0FF0246BB68D31AFA689A42F7D82C
:108F0C0000BF1037BD4680BD0800002080B584B07E
:108F1C0000AF78607B68002B01D10123EDE07B680A
:108F2C0093F82030DBB2002B02D17868FFF77EFE7D
:108F3C007B681B681A687B681B6842F001021A6028
:108F4C00FFF7B8FFF86012E0FFF7B4FF0246FB68CA
:108F5C00D31A0A2B0BD97B685B6A43F400327B680B
:108F6C005A627B68052283F820200123C5E07B68C8
:108F7C001B685B6803F00103002BE5D07B681B6862
:108F8C001A687B681B6822F002021A60FFF792FFD6
:108F9C00F86012E0FFF78EFF0246FB68D31A0A2B2B
:108FAC000BD97B685B6A43F400327B685A627B683E
:108FBC00052283F8202001239FE07B681B685B68F7
:108FCC0003F00203002BE5D17B681B7E012B08D13B
:108FDC007B681B681A687B681B6842F080021A6009
:108FEC0007E07B681B681A687B681B6822F08002AC
:108FFC001A607B685B7E012B08D17B681B681A6842
:10900C007B681B6842F040021A6007E07B681B68B3
:10901C001A687B681B6822F040021A607B689B7E92
:10902C00012B08D17B681B681A687B681B6842F0AF
:10903C0020021A6007E07B681B681A687B681B6853
:10904C0022F020021A607B68DB7E012B08D17B6842
:10905C001B681A687B681B6822F010021A6007E014
:10906C007B681B681A687B681B6842F010021A60E8
:10907C007B681B7F012B08D17B681B681A687B6897
:10908C001B6842F008021A6007E07B681B681A68CC
:10909C007B681B6822F008021A607B685B7F012BDF
:1090AC0008D17B681B681A687B681B6842F0040255
:1090BC001A6007E07B681B681A687B681B6822F0E3
:1090CC0004021A607B689A687B68DB681A437B68C9
:1090DC001B691A437B685B6942EA03017B685B6826
:1090EC005A1E7B681B680A43DA617B6800225A624D
:1090FC007B68012283F82020002318461037BD46D8
:10910C0080BD80B487B000AF786039607B681B6825
:10911C007B617B6893F82030FB74FB7C012B03D0C4
:10912C00FB7C022B40F0AA807B69D3F8003243F021
:10913C0001027B69C3F800223B685B6903F01F03E3
:10914C00012202FA03F3FB607B69D3F81C22FB6853
:10915C00DB431A407B69C3F81C223B68DB69002B9C
:10916C0023D17B69D3F80C22FB68DB431A407B6963
:10917C00C3F80C223B68DB6819043B685B689BB244
:10918C003A68526919437B69483243F832103B689C
:10919C009B6819043B681B689AB23B685B690A437D
:1091AC0079694833DB000B445A603B68DB69012B5F
:1091BC0022D17B69D3F80C22FB681A437B69C3F874
:1091CC000C223B681B6819043B685B689BB23A68CD
:1091DC00526919437B69483243F832103B689B68EB
:1091EC0019043B68DB689AB23B685B690A4379698E
:1091FC004833DB000B445A603B689B69002B09D158
:10920C007B69D3F80422FB68DB431A407B69C3F803
:10921C00042207E07B69D3F80422FB681A437B69BC
:10922C00C3F804223B681B69002B09D17B69D3F876
:10923C001422FB68DB431A407B69C3F8142207E055
:10924C007B69D3F81422FB681A437B69C3F8142298
:10925C003B681B6A012B07D17B69D3F81C22FB6886
:10926C001A437B69C3F81C227B69D3F8003223F0C4
:10927C0001027B69C3F80022002306E07B685B6A6D
:10928C0043F480227B685A62012318461C37BD4682
:10929C0080BC704780B584B000AF78607B6893F871
:1092AC002030DBB2012B2ED17B68022283F82020E8
:1092BC007B681B681A687B681B6822F001021A60C5
:1092CC00FFF7F8FDF86012E0FFF7F4FD0246FB68CB
:1092DC00D31A0A2B0BD97B685B6A43F400327B6888
:1092EC005A627B68052283F82020012312E07B68F8
:1092FC001B685B6803F00103002BE5D17B6800223F
:10930C005A62002306E07B685B6A43F400227B68A8
:10931C005A62012318461037BD4680BD80B487B011
:10932C0000AFF860B9607A603B60FB6893F820305E
:10933C00FB75FB7D012B03D0FB7D022B40F0F380F2
:10934C00BB68002B0ED1FB681B68DB6803F00303C2
:10935C00002B16D1FB685B6A43F40012FB685A625F
:10936C000123E7E0FB681B681B6903F00303002B78
:10937C0007D1FB685B6A43F40012FB685A62012355
:10938C00D8E0FB681A68BB681B331B0113441B68CD
:10939C0003F004027B689A607B689B68002B0CD1FD
:1093AC00FB681A68BB681B331B0113441B685B0DFD
:1093BC00C3F30A027B681A600BE0FB681A68BB688F
:1093CC001B331B0113441B68DB0823F060427B68D2
:1093DC005A60FB681A68BB681B331B0113441B687B
:1093EC0003F002027B68DA60FB681A68BB681B3307
:1093FC001B01134404331B6803F00F027B681A61D2
:10940C00FB681A68BB681B331B01134404331B68CD
:10941C001B0ADAB27B689A61FB681A68BB681B335B
:10942C001B01134404331B681B0C9AB27B685A61F2
:10943C00FB681A68BB681B01134403F5DC731B68DB
:10944C00DAB23B681A70FB681A68BB681B011344DC
:10945C0003F5DC731B681A0A3B680133D2B21A702D
:10946C00FB681A68BB681B01134403F5DC731B68AB
:10947C001A0C3B680233D2B21A70FB681A68BB68CC
:10948C001B01134403F5DC731B681A0E3B68033392
:10949C00D2B21A70FB681A68BB681B01134403F53F
:1094AC00DE731A683B680433D2B21A70FB681A6810
:1094BC00BB681B01134403F5DE731B681A0A3B6877
:1094CC000533D2B21A70FB681A68BB681B011344CF
:1094DC0003F5DE731B681A0C3B680633D2B21A70A4
:1094EC00FB681A68BB681B01134403F5DE731B6829
:1094FC001A0E3B680733D2B21A70BB68002B08D126
:10950C00FB681B68DA68FB681B6842F02002DA60B3
:10951C0007E0FB681B681A69FB681B6842F02002B5
:10952C001A61002306E0FB685B6A43F48022FB6847
:10953C005A62012318461C37BD4680BC704780B464
:10954C0085B000AF786039607B6893F82030FB738E
:10955C00FB7B012B02D0FB7B022B09D17B681B68A8
:10956C0059697B681B683A680A435A61002306E014
:10957C007B685B6A43F480227B685A62012318463D
:10958C001437BD4680BC704780B58AB000AF786098
:10959C0000237B627B681B685B693B627B681B6892
:1095AC005B68FB617B681B689B68BB617B681B68A5
:1095BC00DB687B617B681B681B693B617B681B6894
:1095CC009B69FB603B6A03F00103002B7CD0BB69F9
:1095DC0003F00103002B23D07B681B6801229A60E7
:1095EC00BB6903F00203002B03D0786800F07DF90F
:1095FC0016E0BB6903F00403002B04D07B6A43F430
:10960C0000637B620CE0BB6903F00803002B04D001
:10961C007B6A43F480537B6202E0786800F080F947
:10962C00BB6903F48073002B24D07B681B684FF458
:10963C0080729A60BB6903F40073002B03D07868C6
:10964C0000F05CF916E0BB6903F48063002B04D0D6
:10965C007B6A43F400537B620CE0BB6903F4006348
:10966C00002B04D07B6A43F480437B6202E0786871
:10967C0000F05FF9BB6903F48033002B24D07B68C6
:10968C001B684FF480329A60BB6903F40033002BE3
:10969C0003D0786800F03BF916E0BB6903F4802333
:1096AC00002B04D07B6A43F400437B620CE0BB6963
:1096BC0003F40023002B04D07B6A43F480337B62D9
:1096CC0002E0786800F03EF93B6A03F00803002BD7
:1096DC000CD07B6903F01003002B07D07B6A43F49A
:1096EC0000737B627B681B681022DA603B6A03F0B4
:1096FC000403002B0BD07B6903F00803002B06D06E
:10970C007B681B680822DA60786800F024F93B6AF1
:10971C0003F00203002B09D07B681B68DB6803F0A5
:10972C000303002B02D07868FFF71CFA3B6A03F0A6
:10973C004003002B0CD03B6903F01003002B07D027
:10974C007B6A43F480637B627B681B6810221A611E
:10975C003B6A03F02003002B0BD03B6903F008039A
:10976C00002B06D07B681B6808221A61786800F011
:10977C0004F93B6A03F01003002B09D07B681B68CB
:10978C001B6903F00303002B02D0786800F0ECF89F
:10979C003B6A03F40033002B0BD0FB6903F010037E
:1097AC00002B06D07B681B6810225A60786800F08A
:1097BC00EDF83B6A03F48033002B0BD0FB6903F00C
:1097CC000803002B06D07B681B6808225A60786857
:1097DC0000F0E5F83B6A03F40043002B75D0FB69FD
:1097EC0003F00403002B6CD03B6A03F48073002B52
:1097FC0008D0FB6803F00103002B03D07B6A43F015
:10980C0001037B623B6A03F40073002B08D0FB68F6
:10981C0003F00203002B03D07B6A43F002037B624C
:10982C003B6A03F48063002B08D0FB6803F004034D
:10983C00002B03D07B6A43F004037B623B6A03F486
:10984C000063002B3DD0FB6803F07003002B38D075
:10985C00FB6803F07003302B17D0302B04D8102B7F
:10986C0009D0202B0CD024E0502B18D0602B1BD00F
:10987C00402B0FD01DE07B6A43F008037B6218E09D
:10988C007B6A43F010037B6213E07B6A43F0200396
:10989C007B620EE07B6A43F040037B6209E07B6AEB
:1098AC0043F080037B6204E07B6A43F480737B6249
:1098BC0000BF7B681B689A697B681B6822F070028A
:1098CC009A617B681B6804225A607B6A002B08D063
:1098DC007B685A6A7B6A1A437B685A62786800F024
:1098EC0067F800BF2837BD4680BD80B483B000AF99
:1098FC00786000BF0C37BD4680BC704780B483B025
:10990C0000AF786000BF0C37BD4680BC704780B498
:10991C0083B000AF786000BF0C37BD4680BC704789
:10992C0080B483B000AF786000BF0C37BD4680BCFC
:10993C00704780B483B000AF786000BF0C37BD4671
:10994C0080BC704780B483B000AF786000BF0C3728
:10995C00BD4680BC704780B483B000AF786000BF58
:10996C000C37BD4680BC704780B483B000AF7860C4
:10997C0000BF0C37BD4680BC704780B483B000AFCD
:10998C00786000BF0C37BD4680BC704780B483B094
:10999C0000AF786000BF0C37BD4680BC704780B408
:1099AC0083B000AF786000BF0C37BD4680BC7047F9
:1099BC0080B483B000AF786000BF0C37BD4680BC6C
:1099CC007047000080B485B000AF78607B6803F00E
:1099DC000703FB600C4BDB68BB60BA684FF6FF03F8
:1099EC001340BB60FB681A02BB68134343F0BF63B0
:1099FC0043F40033BB60044ABB68D36000BF143728
:109A0C00BD4680BC704700BF00ED00E080B400AFE5
:109A1C00044BDB681B0A03F007031846BD4680BCE9
:109A2C00704700BF00ED00E080B483B000AF034688
:109A3C00FB7197F90730002B0BDBFB7903F01F024E
:109A4C00064997F907305B09012000FA02F241F848
:109A5C00232000BF0C37BD4680BC704700E100E0FE
:109A6C0080B483B000AF03463960FB7197F90730BF
:109A7C00002B0ADB3B68DAB20C4997F9073012016C
:109A8C00D2B20B4483F800230AE03B68DAB20849EF
:109A9C00FB7903F00F03043B1201D2B20B441A768C
:109AAC0000BF0C37BD4680BC704700BF00E100E032
:109ABC0000ED00E080B489B000AFF860B9607A6066
:109ACC00FB6803F00703FB61FB69C3F10703042B7D
:109ADC0028BF0423BB61FB690433062B02D9FB6945
:109AEC00033B00E000237B614FF0FF32BB6902FABD
:109AFC0003F3DA43BB681A407B699A404FF0FF319D
:109B0C007B6901FA03F3D9437B680B401343184676
:109B1C002437BD4680BC704780B582B000AF7860FA
:109B2C007B68013BB3F1807F01D301230FE00A4A2C
:109B3C007B68013B53600F214FF0FF30FFF790FF24
:109B4C00054B00229A60044B07221A60002318462A
:109B5C000837BD4680BD00BF10E000E080B582B084
:109B6C0000AF78607868FFF72DFF00BF0837BD465F
:109B7C0080BD80B586B000AF0346B9607A60FB73D8
:109B8C0000237B61FFF742FF78617A68B9687869D6
:109B9C00FFF790FF024697F90F3011461846FFF772
:109BAC005FFF00BF1837BD4680BD80B582B000AFE7
:109BBC000346FB7197F907301846FFF735FF00BFD6
:109BCC000837BD4680BD80B582B000AF786078683C
:109BDC00FFF7A2FF034618460837BD4680BD0000BC
:109BEC0080B48BB000AF7860396000237B620023B7
:109BFC003B6227E101227B6A02FA03F3FB613B68BB
:109C0C001B68FA691340BB61BA69FB699A4240F060
:109C1C0016813B685B68122B34D0122B0DD8022BAB
:109C2C002BD0022B04D8002B31D0012B1CD048E0B8
:109C3C00032B43D0112B1BD043E0894A934226D0EF
:109C4C00874A934206D8874A934220D0864A934249
:109C5C001DD036E0854A934219D0854A934216D0DE
:109C6C00844A934213D02CE03B68DB683B6228E0CB
:109C7C003B68DB6804333B6223E03B68DB680833FA
:109C8C003B621EE03B68DB680C333B6219E03B68CF
:109C9C009B68002B02D104233B6212E03B689B685B
:109CAC00012B05D108233B627B68FA691A6108E035
:109CBC0008233B627B68FA695A6102E000233B622D
:109CCC0000BFBB69FF2B01D87B6801E07B680433C4
:109CDC007B61BB69FF2B02D87B6A9B0002E07B6A2D
:109CEC00083B9B003B617B691A680F213B6901FAB9
:109CFC0003F3DB431A40396A3B6901FA03F31A4355
:109D0C007B691A603B685B6803F08053002B00F0A2
:109D1C009680594B9B69584A43F001039361564B0B
:109D2C009B6903F00103BB60BB68544A7B6A9B08C8
:109D3C00023352F82330FB607B6A03F003039B0071
:109D4C000F2202FA03F3DB43FA681340FB607B68D3
:109D5C004B4A934213D07B684A4A93420DD07B689E
:109D6C00494A934207D07B68484A934201D1032366
:109D7C0006E0042304E0022302E0012300E00023B8
:109D8C007A6A02F0030292009340FA681343FB6074
:109D9C003A497B6A9B080233FA6841F823203B68F6
:109DAC005B6803F48033002B06D0394B1A683849B2
:109DBC00BB6913430B6006E0354B1A68BB69DB4388
:109DCC00334913400B603B685B6803F40033002B92
:109DDC0006D02F4B5A682E49BB6913434B6006E0E3
:109DEC002B4B5A68BB69DB43294913404B603B68DA
:109DFC005B6803F48013002B06D0254B9A6824492A
:109E0C00BB6913438B6006E0214B9A68BB69DB434B
:109E1C001F4913408B603B685B6803F40013002BF5
:109E2C0006D01B4BDA681A49BB691343CB6006E0BA
:109E3C00174BDA68BB69DB4315491340CB607B6A6F
:109E4C0001337B623B681A687B6A22FA03F3002BAE
:109E5C007FF4D0AE00BF2C37BD4680BC704700BF2E
:109E6C000000211000001110000012100000311031
:109E7C0000003210000022100010024000000140CF
:109E8C0000080140000C014000100140001401408A
:109E9C000004014080B483B000AF78600B467B8037
:109EAC0013467B707B78002B03D07A887B681A6111
:109EBC0003E07B881A047B681A6100BF0C37BD462F
:109ECC0080BC704780B485B000AF78600B467B8057
:109EDC007B68DB68FB607A88FB6813401A04FB68BC
:109EEC00D9437B880B401A437B681A6100BF143737
:109EFC00BD4680BC7047000080B582B000AF034601
:109F0C00FB80084B5A69FB881340002B06D0054A8E
:109F1C00FB885361FB881846FEF742FE00BF0837EA
:109F2C00BD4680BD0004014070B500250C4E0D4CA3
:109F3C00A41BA410A54209D100F01AF800250A4E62
:109F4C000A4CA41BA410A54205D170BD56F82530AF
:109F5C0098470135EEE756F8253098470135F2E77A
:109F6C00C49F0008C49F0008C49F0008C89F000835
:109F7C00F8B500BFF8BC08BC9E467047F8B500BFEA
:089F8C00F8BC08BC9E467047BA
:109F94004170705F31000000617661696C61626CD0
:109FA40065207570646174650000000070726573EB
:109FB400732074686520627574746F6E000000000D
:049FC40031810008DF
:049FC8000D810008FF
:0C9FCC000024F400100000000100000060
:0400000508008D89D9
:00000001FF
